{
  "contractName": "LXRGame",
  "abi": [
    {
      "inputs": [
        {
          "internalType": "contract LXR",
          "name": "_lxrToken",
          "type": "address"
        },
        {
          "internalType": "contract LXRNFT",
          "name": "_lxrnftToken",
          "type": "address"
        }
      ],
      "stateMutability": "nonpayable",
      "type": "constructor"
    },
    {
      "anonymous": false,
      "inputs": [
        {
          "indexed": true,
          "internalType": "address",
          "name": "previousOwner",
          "type": "address"
        },
        {
          "indexed": true,
          "internalType": "address",
          "name": "newOwner",
          "type": "address"
        }
      ],
      "name": "OwnershipTransferred",
      "type": "event"
    },
    {
      "anonymous": false,
      "inputs": [
        {
          "indexed": false,
          "internalType": "address",
          "name": "sender",
          "type": "address"
        },
        {
          "indexed": false,
          "internalType": "uint256",
          "name": "rewardslxr",
          "type": "uint256"
        },
        {
          "indexed": false,
          "internalType": "uint256",
          "name": "currate",
          "type": "uint256"
        },
        {
          "indexed": false,
          "internalType": "uint256",
          "name": "winrate",
          "type": "uint256"
        }
      ],
      "name": "getGameResult",
      "type": "event"
    },
    {
      "anonymous": false,
      "inputs": [
        {
          "indexed": false,
          "internalType": "address",
          "name": "sender",
          "type": "address"
        },
        {
          "indexed": false,
          "internalType": "uint256",
          "name": "rewardslxr",
          "type": "uint256"
        },
        {
          "indexed": false,
          "internalType": "uint256",
          "name": "day",
          "type": "uint256"
        }
      ],
      "name": "withdrawGameRewards",
      "type": "event"
    },
    {
      "inputs": [],
      "name": "airdrops",
      "outputs": [
        {
          "internalType": "uint256",
          "name": "",
          "type": "uint256"
        }
      ],
      "stateMutability": "view",
      "type": "function",
      "constant": true
    },
    {
      "inputs": [],
      "name": "liquidity",
      "outputs": [
        {
          "internalType": "uint256",
          "name": "",
          "type": "uint256"
        }
      ],
      "stateMutability": "view",
      "type": "function",
      "constant": true
    },
    {
      "inputs": [],
      "name": "marketing",
      "outputs": [
        {
          "internalType": "uint256",
          "name": "",
          "type": "uint256"
        }
      ],
      "stateMutability": "view",
      "type": "function",
      "constant": true
    },
    {
      "inputs": [],
      "name": "owner",
      "outputs": [
        {
          "internalType": "address",
          "name": "",
          "type": "address"
        }
      ],
      "stateMutability": "view",
      "type": "function",
      "constant": true
    },
    {
      "inputs": [],
      "name": "renounceOwnership",
      "outputs": [],
      "stateMutability": "nonpayable",
      "type": "function"
    },
    {
      "inputs": [],
      "name": "reserve",
      "outputs": [
        {
          "internalType": "uint256",
          "name": "",
          "type": "uint256"
        }
      ],
      "stateMutability": "view",
      "type": "function",
      "constant": true
    },
    {
      "inputs": [],
      "name": "rewards",
      "outputs": [
        {
          "internalType": "uint256",
          "name": "",
          "type": "uint256"
        }
      ],
      "stateMutability": "view",
      "type": "function",
      "constant": true
    },
    {
      "inputs": [],
      "name": "staking",
      "outputs": [
        {
          "internalType": "uint256",
          "name": "",
          "type": "uint256"
        }
      ],
      "stateMutability": "view",
      "type": "function",
      "constant": true
    },
    {
      "inputs": [],
      "name": "team",
      "outputs": [
        {
          "internalType": "uint256",
          "name": "",
          "type": "uint256"
        }
      ],
      "stateMutability": "view",
      "type": "function",
      "constant": true
    },
    {
      "inputs": [
        {
          "internalType": "address",
          "name": "newOwner",
          "type": "address"
        }
      ],
      "name": "transferOwnership",
      "outputs": [],
      "stateMutability": "nonpayable",
      "type": "function"
    },
    {
      "inputs": [],
      "name": "getAllSquads",
      "outputs": [
        {
          "components": [
            {
              "internalType": "address",
              "name": "player",
              "type": "address"
            },
            {
              "internalType": "uint256",
              "name": "reward",
              "type": "uint256"
            },
            {
              "internalType": "uint256",
              "name": "hgstlv",
              "type": "uint256"
            },
            {
              "internalType": "uint256",
              "name": "hgstwins",
              "type": "uint256"
            },
            {
              "internalType": "uint256[]",
              "name": "nftIds",
              "type": "uint256[]"
            }
          ],
          "internalType": "struct LXRGame.Squad[]",
          "name": "",
          "type": "tuple[]"
        }
      ],
      "stateMutability": "view",
      "type": "function",
      "constant": true
    },
    {
      "inputs": [
        {
          "internalType": "contract LXR",
          "name": "_lxrToken",
          "type": "address"
        },
        {
          "internalType": "contract LXRNFT",
          "name": "_lxrnftToken",
          "type": "address"
        }
      ],
      "name": "changeContracts",
      "outputs": [],
      "stateMutability": "nonpayable",
      "type": "function"
    },
    {
      "inputs": [
        {
          "internalType": "bool",
          "name": "flag",
          "type": "bool"
        }
      ],
      "name": "changeCheckOneDay",
      "outputs": [],
      "stateMutability": "nonpayable",
      "type": "function"
    },
    {
      "inputs": [
        {
          "internalType": "uint256[]",
          "name": "_nftIds",
          "type": "uint256[]"
        }
      ],
      "name": "createSquad",
      "outputs": [
        {
          "internalType": "uint256",
          "name": "squadid",
          "type": "uint256"
        }
      ],
      "stateMutability": "nonpayable",
      "type": "function"
    },
    {
      "inputs": [
        {
          "internalType": "uint256",
          "name": "squadid",
          "type": "uint256"
        }
      ],
      "name": "deleteSquad",
      "outputs": [],
      "stateMutability": "nonpayable",
      "type": "function"
    },
    {
      "inputs": [
        {
          "internalType": "uint256",
          "name": "squadid",
          "type": "uint256"
        },
        {
          "internalType": "uint256[]",
          "name": "_nftIds",
          "type": "uint256[]"
        }
      ],
      "name": "updateSquad",
      "outputs": [
        {
          "internalType": "bool",
          "name": "result",
          "type": "bool"
        }
      ],
      "stateMutability": "nonpayable",
      "type": "function"
    },
    {
      "inputs": [],
      "name": "getMySquadIds",
      "outputs": [
        {
          "internalType": "uint256[]",
          "name": "mysquads",
          "type": "uint256[]"
        }
      ],
      "stateMutability": "view",
      "type": "function",
      "constant": true
    },
    {
      "inputs": [
        {
          "internalType": "uint256",
          "name": "squadid",
          "type": "uint256"
        }
      ],
      "name": "getSquadFromId",
      "outputs": [
        {
          "internalType": "uint256",
          "name": "hgstlv",
          "type": "uint256"
        },
        {
          "internalType": "uint256",
          "name": "hgstwins",
          "type": "uint256"
        },
        {
          "internalType": "uint256",
          "name": "totalpower",
          "type": "uint256"
        },
        {
          "internalType": "uint256",
          "name": "totalrarity",
          "type": "uint256"
        },
        {
          "internalType": "uint256[]",
          "name": "nftIds",
          "type": "uint256[]"
        }
      ],
      "stateMutability": "view",
      "type": "function",
      "constant": true
    },
    {
      "inputs": [
        {
          "internalType": "uint256",
          "name": "squadid",
          "type": "uint256"
        },
        {
          "internalType": "uint256",
          "name": "level",
          "type": "uint256"
        }
      ],
      "name": "playGame",
      "outputs": [
        {
          "internalType": "uint256",
          "name": "rewardslxr",
          "type": "uint256"
        },
        {
          "internalType": "uint256",
          "name": "currate",
          "type": "uint256"
        }
      ],
      "stateMutability": "payable",
      "type": "function",
      "payable": true
    },
    {
      "inputs": [],
      "name": "getAvailableRewards",
      "outputs": [
        {
          "internalType": "uint256",
          "name": "",
          "type": "uint256"
        }
      ],
      "stateMutability": "view",
      "type": "function",
      "constant": true
    },
    {
      "inputs": [],
      "name": "getLastWithdrawDateTime",
      "outputs": [
        {
          "internalType": "uint256",
          "name": "year",
          "type": "uint256"
        },
        {
          "internalType": "uint256",
          "name": "month",
          "type": "uint256"
        },
        {
          "internalType": "uint256",
          "name": "day",
          "type": "uint256"
        },
        {
          "internalType": "uint256",
          "name": "hour",
          "type": "uint256"
        },
        {
          "internalType": "uint256",
          "name": "minute",
          "type": "uint256"
        },
        {
          "internalType": "uint256",
          "name": "second",
          "type": "uint256"
        }
      ],
      "stateMutability": "view",
      "type": "function",
      "constant": true
    },
    {
      "inputs": [],
      "name": "withdrawRewards",
      "outputs": [
        {
          "internalType": "uint256",
          "name": "rewardslxr",
          "type": "uint256"
        }
      ],
      "stateMutability": "nonpayable",
      "type": "function"
    },
    {
      "inputs": [
        {
          "internalType": "uint256",
          "name": "amount",
          "type": "uint256"
        }
      ],
      "name": "withdrawEther",
      "outputs": [],
      "stateMutability": "payable",
      "type": "function",
      "payable": true
    },
    {
      "inputs": [
        {
          "internalType": "uint256",
          "name": "amount",
          "type": "uint256"
        }
      ],
      "name": "withdrawLXR",
      "outputs": [],
      "stateMutability": "nonpayable",
      "type": "function"
    }
  ],
  "bytecode": "0x6080604052601260028190556200001890600a620002d9565b6200002790620f4240620002ee565b6003556002546200003a90600a620002d9565b620000499062061a80620002ee565b6004556002546200005c90600a620002d9565b6200006b90620493e0620002ee565b6005556002546200007e90600a620002d9565b6200008d9062027100620002ee565b600655600254620000a090600a620002d9565b620000af9062013880620002ee565b600755600254620000c290600a620002d9565b620000d090619c40620002ee565b600855600254620000e390600a620002d9565b620000f190614e20620002ee565b6009556000600a553480156200010657600080fd5b50604051620031b2380380620031b2833981016040819052620001299162000329565b620001343362000174565b60018055600b80546001600160a01b039384166001600160a01b031991821617909155600c80549290931691161790556011805460ff1916905562000368565b600080546001600160a01b038381166001600160a01b0319831681178455604051919092169283917f8be0079c531659141344cd1fd0a4f28419497f9722a3daafe3b4186f6b6457e09190a35050565b634e487b7160e01b600052601160045260246000fd5b600181815b808511156200021b578160001904821115620001ff57620001ff620001c4565b808516156200020d57918102915b93841c9390800290620001df565b509250929050565b6000826200023457506001620002d3565b816200024357506000620002d3565b81600181146200025c5760028114620002675762000287565b6001915050620002d3565b60ff8411156200027b576200027b620001c4565b50506001821b620002d3565b5060208310610133831016604e8410600b8410161715620002ac575081810a620002d3565b620002b88383620001da565b8060001904821115620002cf57620002cf620001c4565b0290505b92915050565b6000620002e7838362000223565b9392505050565b60008160001904831182151516156200030b576200030b620001c4565b500290565b6001600160a01b03811681146200032657600080fd5b50565b600080604083850312156200033d57600080fd5b82516200034a8162000310565b60208401519092506200035d8162000310565b809150509250929050565b612e3a80620003786000396000f3fe60806040526004361061011b5760003560e01c806310eb908b146101205780631a686502146101425780632a7ea4d91461016b5780632d3e474a1461018b578063309627b6146101a157806334825a23146101c1578063382d501f146101e95780633bed33ce146102095780634c292f101461021c5780634cf088d91461023e5780635393635014610254578063715018a61461029657806385f2aef2146102ab5780638da5cb5b146102c15780639ec5a894146102e3578063b8c107e8146102f9578063c4e1cbcb1461032a578063c7b8981c1461034a578063cd3293de1461035f578063d61489b514610375578063f2fde38b14610397578063f4d4b507146103b7578063fc9c99ac146103e7578063ff51359114610409575b600080fd5b34801561012c57600080fd5b5061014061013b366004612557565b61041f565b005b34801561014e57600080fd5b5061015860045481565b6040519081526020015b60405180910390f35b34801561017757600080fd5b50610140610186366004612574565b61046a565b34801561019757600080fd5b5061015860065481565b3480156101ad57600080fd5b506101406101bc3660046125a2565b610731565b6101d46101cf3660046125db565b61078e565b60408051928352602083019190915201610162565b3480156101f557600080fd5b506101586102043660046126ad565b610e6a565b610140610217366004612574565b611102565b34801561022857600080fd5b506102316111a7565b60405161016291906126e9565b34801561024a57600080fd5b5061015860055481565b34801561026057600080fd5b506102696112b6565b604080519687526020870195909552938501929092526060840152608083015260a082015260c001610162565b3480156102a257600080fd5b506101406112ec565b3480156102b757600080fd5b5061015860085481565b3480156102cd57600080fd5b506102d6611327565b60405161016291906127b0565b3480156102ef57600080fd5b5061015860035481565b34801561030557600080fd5b50610319610314366004612574565b611336565b6040516101629594939291906127ff565b34801561033657600080fd5b50610140610345366004612574565b61160a565b34801561035657600080fd5b50610158611767565b34801561036b57600080fd5b5061015860075481565b34801561038157600080fd5b5061038a6119c6565b604051610162919061282a565b3480156103a357600080fd5b506101406103b236600461283d565b611a27565b3480156103c357600080fd5b506103d76103d236600461285a565b611ac7565b6040519015158152602001610162565b3480156103f357600080fd5b5033600090815260126020526040902054610158565b34801561041557600080fd5b5061015860095481565b33610428611327565b6001600160a01b0316146104575760405162461bcd60e51b815260040161044e906128a0565b60405180910390fd5b6011805460ff1916911515919091179055565b600d54811061048b5760405162461bcd60e51b815260040161044e906128d5565b336001600160a01b0316600d82815481106104a8576104a8612900565b60009182526020909120600590910201546001600160a01b0316146104df5760405162461bcd60e51b815260040161044e90612916565b60005b600d82815481106104f5576104f5612900565b90600052602060002090600502016004018054905081101561057c57600060106000600d858154811061052a5761052a612900565b9060005260206000209060050201600401848154811061054c5761054c612900565b9060005260206000200154815260200190815260200160002081905550808061057490612962565b9150506104e2565b506000600d828154811061059257610592612900565b906000526020600020906005020190508060040160006105b291906124cb565b600d82815481106105c5576105c5612900565b60009182526020822060059091020180546001600160a01b03191681556001810182905560028101829055600381018290559061060560048301826124cb565b5050336000908152600f6020526040812054905b8181101561072b57336000908152600f6020526040902080548591908390811061064557610645612900565b9060005260206000200154141561071957805b61066360018461297d565b8110156106df57336000908152600f60205260409020610684826001612994565b8154811061069457610694612900565b6000918252602080832090910154338352600f90915260409091208054839081106106c1576106c1612900565b600091825260209091200155806106d781612962565b915050610658565b50336000908152600f602052604090208054806106fe576106fe6129ac565b6001900381819060005260206000200160009055905561072b565b8061072381612962565b915050610619565b50505050565b3361073a611327565b6001600160a01b0316146107605760405162461bcd60e51b815260040161044e906128a0565b600b80546001600160a01b039384166001600160a01b031991821617909155600c8054929093169116179055565b600080662386f26fc100003410156108045760405162461bcd60e51b815260206004820152603360248201527f507269636520697320696e73756666696369656e74207468616e206d696e696d6044820152723ab6903b30b63ab2901418171818a12721149760691b606482015260840161044e565b600d5484106108485760405162461bcd60e51b815260206004820152601060248201526f125b9d985b1a59081cdc5d5859081a5960821b604482015260640161044e565b6000831180156108595750600a8311155b6108a45760405162461bcd60e51b815260206004820152601c60248201527b24b73b30b634b2103632bb32b61d1018bf18981032b730b13632b21760211b604482015260640161044e565b336000908152600e60205260408120546108bf906001611deb565b60115490915060ff161561092f574281111561092f5760405162461bcd60e51b815260206004820152602960248201527f596f752063616e20706c6179206f6e636520706572206461792077697468207460448201526834329039b8bab0b21760b91b606482015260840161044e565b600d858154811061094257610942612900565b90600052602060002090600502016002015460016109609190612994565b84111561097f5760405162461bcd60e51b815260040161044e906129c2565b600d858154811061099257610992612900565b90600052602060002090600502016002015460016109b09190612994565b841480156109e257506003600d86815481106109ce576109ce612900565b906000526020600020906005020160030154105b156109ff5760405162461bcd60e51b815260040161044e906129c2565b6000806000806000610a82600d8b81548110610a1d57610a1d612900565b9060005260206000209060050201600401805480602002602001604051908101604052809291908181526020018280548015610a7857602002820191906000526020600020905b815481526020019060010190808311610a64575b5050505050611e19565b90965094509250610a93858a612087565b90925090508015801590610aa75750600082115b610b0c5760405162461bcd60e51b815260206004820152603060248201527f4e6f742073617469736669656420696e206c6576656c20616e64206d696e206160448201526f3a3a30b1b59031b7b73234ba34b7b71760811b606482015260840161044e565b80851115610b18578094505b6000610b24838361297d565b610b2e848861297d565b610b3990603c612a10565b610b439190612a45565b610b4e906014612994565b9050610b5c600060646121f9565b9750808811158015610b6e5750600086115b15610bd8576005612260610b8487610f3c612a10565b610b8f89605a612a10565b610b999190612994565b610ba3919061297d565b6004600254610bb2919061297d565b610bbd90600a612b3d565b610bc79190612a10565b610bd19190612a45565b9850610bdd565b600098505b600354891115610c405760405162461bcd60e51b815260206004820152602860248201527f4c585220746f6b656e20697320206e6f742073756666696369656e7420666f72604482015267207265776172647360c01b606482015260840161044e565b60005b600d8c81548110610c5657610c56612900565b906000526020600020906005020160040180549050811015610d3557600c54600d80546001600160a01b0390921691639c0c699791908f908110610c9c57610c9c612900565b90600052602060002090600502016004018381548110610cbe57610cbe612900565b6000918252602090912001546040516001600160e01b031960e084901b168152600481019190915260016024820152604401600060405180830381600087803b158015610d0a57600080fd5b505af1158015610d1e573d6000803e3d6000fd5b505050508080610d2d90612962565b915050610c43565b50336000908152600e602052604090204290558815610e14576000600d8c81548110610d6357610d63612900565b906000526020600020906005020190508981600101819055508a81600201541415610da457600381018054906000610d9a83612962565b9190505550610dbf565b8a81600201541015610dbf57600281018b9055600160038201555b33600090815260126020526040812054610dda908c90612994565b3360009081526012602090815260408083208490556013909152902054909150610e11573360009081526013602052604090204290555b50505b60408051338152602081018b9052908101899052606081018290527f5b6e996508a46f522e7785c43cb705c2dddc6a0891a4fa7a68c81bd14aae2c4c9060800160405180910390a1505050505050509250929050565b6000805b8251811015610f8b57600c54835133916001600160a01b031690636352211e90869085908110610ea057610ea0612900565b60200260200101516040518263ffffffff1660e01b8152600401610ec691815260200190565b602060405180830381865afa158015610ee3573d6000803e3d6000fd5b505050506040513d601f19601f82011682018060405250810190610f079190612b49565b6001600160a01b031614610f2d5760405162461bcd60e51b815260040161044e90612b66565b60106000848381518110610f4357610f43612900565b6020026020010151815260200190815260200160002054600014610f795760405162461bcd60e51b815260040161044e90612baa565b80610f8381612962565b915050610e6e565b5050600d8054600180820183556000928352600582027fd7b6990105719101dabeb77144f2a3385c8033acd3af97e9423a695e81ad1eb5810180546001600160a01b031916331781557fd7b6990105719101dabeb77144f2a3385c8033acd3af97e9423a695e81ad1eb682018590557fd7b6990105719101dabeb77144f2a3385c8033acd3af97e9423a695e81ad1eb78201929092557fd7b6990105719101dabeb77144f2a3385c8033acd3af97e9423a695e81ad1eb881019390935583519192909161107f917fd7b6990105719101dabeb77144f2a3385c8033acd3af97e9423a695e81ad1eb9019060208601906124e9565b50336000908152600f6020908152604082208054600181018255908352908220018390555b83518110156110fb576110b8836001612994565b601060008684815181106110ce576110ce612900565b602002602001015181526020019081526020016000208190555080806110f390612962565b9150506110a4565b5050919050565b3361110b611327565b6001600160a01b0316146111315760405162461bcd60e51b815260040161044e906128a0565b478111156111765760405162461bcd60e51b8152602060048201526012602482015271696e737566666963656e742045746865727360701b604482015260640161044e565b604051339082156108fc029083906000818181858888f193505050501580156111a3573d6000803e3d6000fd5b5050565b6060336111b2611327565b6001600160a01b0316146111d85760405162461bcd60e51b815260040161044e906128a0565b600d805480602002602001604051908101604052809291908181526020016000905b828210156112ad5760008481526020908190206040805160a0810182526005860290920180546001600160a01b03168352600181015483850152600281015483830152600381015460608401526004810180548351818702810187019094528084529394919360808601939283018282801561129557602002820191906000526020600020905b815481526020019060010190808311611281575b505050505081525050815260200190600101906111fa565b50505050905090565b33600090815260136020526040812054819081908190819081906112d99061226c565b949b939a50919850965094509092509050565b336112f5611327565b6001600160a01b03161461131b5760405162461bcd60e51b815260040161044e906128a0565b61132560006122e0565b565b6000546001600160a01b031690565b6000806000806060600d80549050861061137f5760405162461bcd60e51b815260206004820152600a602482015269125b9d985b1a59081a5960b21b604482015260640161044e565b336001600160a01b0316600d878154811061139c5761139c612900565b60009182526020909120600590910201546001600160a01b0316146113f95760405162461bcd60e51b815260206004820152601360248201527224b73b30b634b21039b8bab0b21037bbb732b960691b604482015260640161044e565b600d868154811061140c5761140c612900565b9060005260206000209060050201600201549450600d868154811061143357611433612900565b9060005260206000209060050201600301549350600d868154811061145a5761145a612900565b90600052602060002090600502016004018054806020026020016040519081016040528092919081815260200182805480156114b557602002820191906000526020600020905b8154815260200190600101908083116114a1575b50505050509050600092506000915060005b815181101561160057600c54825160019160fa916001600160a01b0390911690630ae7a310908690869081106114ff576114ff612900565b60200260200101516040518263ffffffff1660e01b815260040161152591815260200190565b60a060405180830381865afa158015611542573d6000803e3d6000fd5b505050506040513d601f19601f820116820180604052508101906115669190612bf7565b60400151905060fa811015801561157e57506101f481105b1561158c57600291506115d3565b6101f4811015801561159f57506103e881105b156115ad57600391506115d3565b6103e881101580156115c057506107d081105b156115ce57600491506115d3565b600591505b6115dd8187612994565b95506115e98286612994565b9450505080806115f890612962565b9150506114c7565b5091939590929450565b33611613611327565b6001600160a01b0316146116395760405162461bcd60e51b815260040161044e906128a0565b600b546040516370a0823160e01b81526001600160a01b03909116906370a08231906116699030906004016127b0565b602060405180830381865afa158015611686573d6000803e3d6000fd5b505050506040513d601f19601f820116820180604052508101906116aa9190612c6e565b8111156116f25760405162461bcd60e51b8152602060048201526016602482015275696e737566666963656e74204c585220746f6b656e7360501b604482015260640161044e565b600b5460405163a9059cbb60e01b81526001600160a01b039091169063a9059cbb906117249033908590600401612c87565b6020604051808303816000875af1158015611743573d6000803e3d6000fd5b505050506040513d601f19601f820116820180604052508101906111a39190612ca0565b6000600260015414156117bc5760405162461bcd60e51b815260206004820152601f60248201527f5265656e7472616e637947756172643a207265656e7472616e742063616c6c00604482015260640161044e565b6002600155336000908152601360205260409020546118115760405162461bcd60e51b8152602060048201526011602482015270496e76616c6964206c617374206461746560781b604482015260640161044e565b336000908152601260205260409020546118645760405162461bcd60e51b8152602060048201526014602482015273496e73756666696369656e74207265776172647360601b604482015260640161044e565b5033600090815260126020908152604080832054601390925282205490919061188d9042612330565b9050600f8110156118d15760646118a5826003612a10565b6118b090602d61297d565b6118ba9084612a10565b6118c49190612a45565b6118ce908361297d565b91505b336000908152601260209081526040808320839055601390915281208190556003805484929061190290849061297d565b9091555050600b5460405163a9059cbb60e01b81526001600160a01b039091169063a9059cbb906119399033908690600401612c87565b6020604051808303816000875af1158015611958573d6000803e3d6000fd5b505050506040513d601f19601f8201168201806040525081019061197c9190612ca0565b5060408051338152602081018490529081018290527f340607062364e98abeed5bc2ca6fe6f0df9be7296a75afb170097352f98ae5c79060600160405180910390a1506001805590565b336000908152600f6020908152604091829020805483518184028101840190945280845260609392830182828015611a1d57602002820191906000526020600020905b815481526020019060010190808311611a09575b5050505050905090565b33611a30611327565b6001600160a01b031614611a565760405162461bcd60e51b815260040161044e906128a0565b6001600160a01b038116611abb5760405162461bcd60e51b815260206004820152602660248201527f4f776e61626c653a206e6577206f776e657220697320746865207a65726f206160448201526564647265737360d01b606482015260840161044e565b611ac4816122e0565b50565b600d546000908310611aeb5760405162461bcd60e51b815260040161044e906128d5565b336001600160a01b0316600d8481548110611b0857611b08612900565b60009182526020909120600590910201546001600160a01b031614611b3f5760405162461bcd60e51b815260040161044e90612916565b60005b8251811015611c9f57600c54835133916001600160a01b031690636352211e90869085908110611b7457611b74612900565b60200260200101516040518263ffffffff1660e01b8152600401611b9a91815260200190565b602060405180830381865afa158015611bb7573d6000803e3d6000fd5b505050506040513d601f19601f82011682018060405250810190611bdb9190612b49565b6001600160a01b031614611c015760405162461bcd60e51b815260040161044e90612b66565b60106000848381518110611c1757611c17612900565b602002602001015181526020019081526020016000205460001480611c715750611c42846001612994565b60106000858481518110611c5857611c58612900565b6020026020010151815260200190815260200160002054145b611c8d5760405162461bcd60e51b815260040161044e90612baa565b80611c9781612962565b915050611b42565b5060005b600d8481548110611cb657611cb6612900565b906000526020600020906005020160040180549050811015611d3d57600060106000600d8781548110611ceb57611ceb612900565b90600052602060002090600502016004018481548110611d0d57611d0d612900565b90600052602060002001548152602001908152602001600020819055508080611d3590612962565b915050611ca3565b5060005b8251811015611d9857611d55846001612994565b60106000858481518110611d6b57611d6b612900565b60200260200101518152602001908152602001600020819055508080611d9090612962565b915050611d41565b506000600d8481548110611dae57611dae612900565b90600052602060002090600502019050806004016000611dce91906124cb565b8251611de390600483019060208601906124e9565b505092915050565b6000611dfa6201518083612a10565b611e049084612994565b905082811015611e1357600080fd5b92915050565b60008080805b845181101561207f576000858281518110611e3c57611e3c612900565b6020026020010151111561206d57600c54855133916001600160a01b031690636352211e90889085908110611e7357611e73612900565b60200260200101516040518263ffffffff1660e01b8152600401611e9991815260200190565b602060405180830381865afa158015611eb6573d6000803e3d6000fd5b505050506040513d601f19601f82011682018060405250810190611eda9190612b49565b6001600160a01b031614611f415760405162461bcd60e51b815260206004820152602860248201527f496e76616c696420746f6b656e206964206e6f7420666f7220746865206d73676044820152671039b2b73232b91760c11b606482015260840161044e565b83611f4b81612962565b600c548751919650600192506000916001600160a01b0390911690630ae7a31090899086908110611f7e57611f7e612900565b60200260200101516040518263ffffffff1660e01b8152600401611fa491815260200190565b60a060405180830381865afa158015611fc1573d6000803e3d6000fd5b505050506040513d601f19601f82011682018060405250810190611fe59190612bf7565b60400151905060fa8110158015611ffd57506101f481105b1561200b5760029150612052565b6101f4811015801561201e57506103e881105b1561202c5760039150612052565b6103e8811015801561203f57506107d081105b1561204d5760049150612052565b600591505b61205c8186612994565b94506120688285612994565b935050505b8061207781612962565b915050611e1f565b509193909250565b60008082600114801561209b575060648410155b156120ad57506064905061012c6121f2565b8260021480156120be575060968410155b156120d05750609690506101cc6121f2565b8260031480156120e1575060f08410155b156120f3575060f090506102d06121f2565b82600414801561210557506101728410155b15612118575061017290506104566121f2565b82600514801561212a575061023a8410155b1561213d575061023a90506106ae6121f2565b82600614801561214f57506103708410155b1561216257506103709050610a506121f2565b82600714801561217457506105468410155b1561218757506105469050610fe66121f2565b826008148015612199575061082a8410155b156121ac575061082a90506118926121f2565b8260091480156121be5750610ca88410155b156121d15750610ca890506125ee6121f2565b82600a1480156121e357506113888410155b156121f257506113889050613a985b9250929050565b600a80546000918261220a83612962565b9091555083905061221b8382612994565b600a54604051612238914291602001918252602082015260400190565b6040516020818303038152906040528051906020012060001c61225b9190612cbd565b612265919061297d565b9392505050565b600080808080806122886122836201518089612a45565b612357565b91975095509350600061229e6201518089612cbd565b90506122ac610e1082612a45565b93506122ba610e1082612cbd565b90506122c7603c82612a45565b92506122d4603c82612cbd565b91505091939550919395565b600080546001600160a01b038381166001600160a01b0319831681178455604051919092169283917f8be0079c531659141344cd1fd0a4f28419497f9722a3daafe3b4186f6b6457e09190a35050565b60008183111561233f57600080fd5b6201518061234d848461297d565b6122659190612a45565b60008080838162253d8c61236e8362010bd9612cd1565b6123789190612cd1565b9050600062023ab161238b836004612d12565b6123959190612d97565b905060046123a68262023ab1612d12565b6123b1906003612cd1565b6123bb9190612d97565b6123c59083612dc5565b9150600062164b096123d8846001612cd1565b6123e490610fa0612d12565b6123ee9190612d97565b905060046123fe826105b5612d12565b6124089190612d97565b6124129084612dc5565b61241d90601f612cd1565b9250600061098f61242f856050612d12565b6124399190612d97565b90506000605061244b8361098f612d12565b6124559190612d97565b61245f9086612dc5565b905061246c600b83612d97565b945061247985600c612d12565b612484836002612cd1565b61248e9190612dc5565b9150848361249d603187612dc5565b6124a8906064612d12565b6124b29190612cd1565b6124bc9190612cd1565b9a919950975095505050505050565b5080546000825590600052602060002090810190611ac49190612534565b828054828255906000526020600020908101928215612524579160200282015b82811115612524578251825591602001919060010190612509565b50612530929150612534565b5090565b5b808211156125305760008155600101612535565b8015158114611ac457600080fd5b60006020828403121561256957600080fd5b813561226581612549565b60006020828403121561258657600080fd5b5035919050565b6001600160a01b0381168114611ac457600080fd5b600080604083850312156125b557600080fd5b82356125c08161258d565b915060208301356125d08161258d565b809150509250929050565b600080604083850312156125ee57600080fd5b50508035926020909101359150565b634e487b7160e01b600052604160045260246000fd5b600082601f83011261262457600080fd5b813560206001600160401b0380831115612640576126406125fd565b8260051b604051601f19603f83011681018181108482111715612665576126656125fd565b60405293845285810183019383810192508785111561268357600080fd5b83870191505b848210156126a257813583529183019190830190612689565b979650505050505050565b6000602082840312156126bf57600080fd5b81356001600160401b038111156126d557600080fd5b6126e184828501612613565b949350505050565b60006020808301818452808551808352604092508286019150828160051b8701018488016000805b848110156127a157898403603f19018652825180516001600160a01b03168552888101518986015287810151888601526060808201519086015260809081015160a0918601829052805191860182905289019060c086019084905b8082101561278c5783518352928b0192918b01916001919091019061276c565b50509689019694505091870191600101612711565b50919998505050505050505050565b6001600160a01b0391909116815260200190565b600081518084526020808501945080840160005b838110156127f4578151875295820195908201906001016127d8565b509495945050505050565b85815284602082015283604082015282606082015260a0608082015260006126a260a08301846127c4565b60208152600061226560208301846127c4565b60006020828403121561284f57600080fd5b81356122658161258d565b6000806040838503121561286d57600080fd5b8235915060208301356001600160401b0381111561288a57600080fd5b61289685828601612613565b9150509250929050565b6020808252818101527f4f776e61626c653a2063616c6c6572206973206e6f7420746865206f776e6572604082015260600190565b60208082526011908201527024b73b30b634b21039b8bab0b21034b21760791b604082015260600190565b634e487b7160e01b600052603260045260246000fd5b6020808252601c908201527b24b73b30b634b21037bbb732b9103337b9103a34329039b8bab0b21760211b604082015260600190565b634e487b7160e01b600052601160045260246000fd5b60006000198214156129765761297661294c565b5060010190565b60008282101561298f5761298f61294c565b500390565b600082198211156129a7576129a761294c565b500190565b634e487b7160e01b600052603160045260246000fd5b6020808252602e908201527f4c6f636b6564206c6576656c2c2077696e2033206d6f72652074696d6573206960408201526d37103637bbb2b9103632bb32b61760911b606082015260800190565b6000816000190483118215151615612a2a57612a2a61294c565b500290565b634e487b7160e01b600052601260045260246000fd5b600082612a5457612a54612a2f565b500490565b600181815b80851115612a94578160001904821115612a7a57612a7a61294c565b80851615612a8757918102915b93841c9390800290612a5e565b509250929050565b600082612aab57506001611e13565b81612ab857506000611e13565b8160018114612ace5760028114612ad857612af4565b6001915050611e13565b60ff841115612ae957612ae961294c565b50506001821b611e13565b5060208310610133831016604e8410600b8410161715612b17575081810a611e13565b612b218383612a59565b8060001904821115612b3557612b3561294c565b029392505050565b60006122658383612a9c565b600060208284031215612b5b57600080fd5b81516122658161258d565b60208082526024908201527f4e6f742076616c6964204e465420696420666f7220746865206d73672073656e6040820152633232b91760e11b606082015260800190565b6020808252602d908201527f466f756e6420616e204e46542069642074686174206a6f696e656420696e206160408201526c3737ba3432b91039b8bab0b21760991b606082015260800190565b600060a08284031215612c0957600080fd5b60405160a081016001600160401b0381118282101715612c2b57612c2b6125fd565b80604052508251815260208301516020820152604083015160408201526060830151612c5681612549565b60608201526080928301519281019290925250919050565b600060208284031215612c8057600080fd5b5051919050565b6001600160a01b03929092168252602082015260400190565b600060208284031215612cb257600080fd5b815161226581612549565b600082612ccc57612ccc612a2f565b500690565b600080821280156001600160ff1b0384900385131615612cf357612cf361294c565b600160ff1b8390038412811615612d0c57612d0c61294c565b50500190565b60006001600160ff1b0381841382841380821686840486111615612d3857612d3861294c565b600160ff1b6000871282811687830589121615612d5757612d5761294c565b60008712925087820587128484161615612d7357612d7361294c565b87850587128184161615612d8957612d8961294c565b505050929093029392505050565b600082612da657612da6612a2f565b600160ff1b821460001984141615612dc057612dc061294c565b500590565b60008083128015600160ff1b850184121615612de357612de361294c565b6001600160ff1b0384018313811615612dfe57612dfe61294c565b5050039056fea2646970667358221220c2617dc2158bd768ed8a1974c68b7d670bfd734d1f65d41aba8e7ae5c064ca3264736f6c634300080c0033",
  "immutableReferences": {},
  "source": "// SPDX-License-Identifier: MIT\r\npragma solidity >=0.4.22 <0.9.0;\r\npragma experimental ABIEncoderV2;\r\n\r\nimport \"@openzeppelin/contracts/access/Ownable.sol\";\r\nimport \"@openzeppelin/contracts/security/ReentrancyGuard.sol\";\r\n\r\nimport './LXR.sol';\r\nimport './LXRNFT.sol';\r\nimport './DateTimeLibrary.sol';\r\n\r\ncontract LXRGame is Ownable, ReentrancyGuard {    \r\n    uint decimal = 18;\r\n    uint256 public rewards = 1000000 * (10 ** decimal);\r\n    uint256 public liquidity = 400000 * (10 ** decimal);\r\n    uint256 public staking = 300000 * (10 ** decimal);\r\n    uint256 public marketing = 160000 * (10 ** decimal);\r\n    uint256 public reserve = 80000 * (10 ** decimal);\r\n    uint256 public team = 40000 * (10 ** decimal);\r\n    uint256 public airdrops = 20000 * (10 ** decimal);\r\n\r\n    uint constant minPrice = 0.01 ether;\r\n    uint constant beginfee = 45;\r\n    uint constant dailyfee = 3;\r\n\r\n    event getGameResult(address sender, uint rewardslxr, uint currate, uint winrate);\r\n    event withdrawGameRewards(address sender, uint rewardslxr, uint day);\r\n\r\n    uint nonce = 0;\r\n    LXR lxrToken;\r\n    LXRNFT lxrnftToken;\r\n\r\n    struct Squad {\r\n        address   player;\r\n        uint      reward;                \r\n        uint      hgstlv;\r\n        uint      hgstwins;\r\n        uint[]    nftIds;\r\n    }\r\n\r\n    Squad[] squads;    \r\n    mapping(address => uint) usersLasttime;\r\n    mapping(address => uint256[]) usersSquads;\r\n    mapping(uint => uint) checkNftinSquad;\r\n    bool isCheckOneday;\r\n\r\n    mapping(address => uint) usersRewards;\r\n    mapping(address => uint) usersLastDate;\r\n    \r\n    constructor(LXR _lxrToken, LXRNFT _lxrnftToken) public { \r\n        lxrToken = _lxrToken;\r\n        lxrnftToken = _lxrnftToken;\r\n        isCheckOneday = false;\r\n    }\r\n    \r\n    function getAllSquads() external view onlyOwner returns (Squad[] memory) {\r\n        return squads;\r\n    }\r\n\r\n    function changeContracts(LXR _lxrToken, LXRNFT _lxrnftToken) external onlyOwner \r\n    {\r\n        lxrToken = _lxrToken;\r\n        lxrnftToken = _lxrnftToken;\r\n    }\r\n\r\n    function changeCheckOneDay(bool flag) external onlyOwner {\r\n        isCheckOneday = flag;\r\n    }\r\n\r\n    function getMaxAttackLimit(uint totalpower, uint level) internal view returns (uint _minap, uint _maxap) {\r\n        if (level == 1 && totalpower >= 100) {\r\n            _maxap = 300; _minap = 100;\r\n        }\r\n        else if (level == 2 && totalpower >= 150) {\r\n            _maxap = 460; _minap = 150;\r\n        }\r\n        else if (level == 3 && totalpower >= 240) {\r\n            _maxap = 720; _minap = 240;\r\n        }\r\n        else if (level == 4 && totalpower >= 370) {\r\n            _maxap = 1110; _minap = 370;\r\n        }\r\n        else if (level == 5 && totalpower >= 570) {\r\n            _maxap = 1710; _minap = 570;\r\n        }\r\n        else if (level == 6 && totalpower >= 880) {\r\n            _maxap = 2640; _minap = 880;\r\n        }\r\n        else if (level == 7 && totalpower >= 1350) {\r\n            _maxap = 4070; _minap = 1350;\r\n        }\r\n        else if (level == 8 && totalpower >= 2090) {\r\n            _maxap = 6290; _minap = 2090;\r\n        }\r\n        else if (level == 9 && totalpower >= 3240) {\r\n            _maxap = 9710; _minap = 3240;\r\n        }\r\n        else if (level == 10 && totalpower >= 5000) {\r\n            _maxap = 15000; _minap = 5000;\r\n        }\r\n    }\r\n\r\n    function getSquadInfo(uint[] memory _nftIds) internal view returns (uint count, uint totalpower, uint totalrarity) {        \r\n        count = 0;\r\n        totalpower = 0;\r\n        totalrarity = 0;\r\n        for (uint i = 0; i < _nftIds.length; i++) {\r\n            if (_nftIds[i] > 0) {\r\n                require(lxrnftToken.ownerOf(_nftIds[i]) == msg.sender, \"Invalid token id not for the msg sender.\");\r\n                count++;\r\n\r\n                uint rarity = 1;\r\n                uint power = lxrnftToken.tokenMeta(_nftIds[i]).power;                              \r\n                if (power >= 250 && power < 500) \r\n                    rarity = 2;\r\n                else if (power >= 500 && power < 1000)\r\n                    rarity = 3;\r\n                else if (power >= 1000 && power < 2000)\r\n                    rarity = 4; \r\n                else\r\n                    rarity = 5;\r\n\r\n                totalpower += power;\r\n                totalrarity += rarity;\r\n            }\r\n        }      \r\n    }\r\n\r\n    function rand(uint256 min, uint256 max) internal returns (uint256){\r\n        nonce++;\r\n        return uint256(keccak256(abi.encodePacked(block.timestamp, nonce))) % (min + max) - min;        \r\n    }\r\n\r\n    function createSquad(uint256[] memory _nftIds) external returns(uint256 squadid) {\r\n        for (uint i = 0; i < _nftIds.length; i++) {\r\n            require(lxrnftToken.ownerOf(_nftIds[i]) == msg.sender, \"Not valid NFT id for the msg sender.\");\r\n            require(checkNftinSquad[_nftIds[i]] == 0, \"Found an NFT id that joined in another squad.\");            \r\n        }\r\n        squadid = squads.length;\r\n        Squad storage _squad = squads.push();\r\n        _squad.player = msg.sender;\r\n        _squad.reward = 0;\r\n        _squad.hgstlv = 1;\r\n        _squad.hgstwins = 0;\r\n        _squad.nftIds = _nftIds;\r\n        usersSquads[msg.sender].push(squadid);\r\n        for (uint i = 0; i < _nftIds.length; i++) {\r\n           checkNftinSquad[_nftIds[i]] = squadid + 1; \r\n        }\r\n    }\r\n\r\n    function deleteSquad(uint squadid) external {\r\n        require(squadid < squads.length, \"Invalid squad id.\");\r\n        require(squads[squadid].player == msg.sender, \"Invalid owner for the squad.\");\r\n        for (uint i = 0; i < squads[squadid].nftIds.length; i++) {\r\n            checkNftinSquad[squads[squadid].nftIds[i]] = 0; \r\n        }        \r\n        Squad storage _squad = squads[squadid];        \r\n        delete _squad.nftIds;\r\n        delete squads[squadid];  \r\n\r\n        uint _length = usersSquads[msg.sender].length;\r\n        for (uint i = 0; i < _length; i++) {\r\n            if (usersSquads[msg.sender][i] == squadid) {\r\n                for (uint j = i; j < _length - 1; j++) {\r\n                    usersSquads[msg.sender][j] = usersSquads[msg.sender][j + 1];\r\n                }\r\n                usersSquads[msg.sender].pop();\r\n                break;\r\n            }\r\n        }\r\n    }\r\n\r\n    function updateSquad(uint256 squadid, uint256[] memory _nftIds) external returns(bool result) {\r\n        require(squadid < squads.length, \"Invalid squad id.\");\r\n        require(squads[squadid].player == msg.sender, \"Invalid owner for the squad.\");\r\n        \r\n        for (uint i = 0; i < _nftIds.length; i++) {\r\n            require(lxrnftToken.ownerOf(_nftIds[i]) == msg.sender, \"Not valid NFT id for the msg sender.\");\r\n            require(checkNftinSquad[_nftIds[i]] == 0 || checkNftinSquad[_nftIds[i]] == (squadid + 1), \"Found an NFT id that joined in another squad.\");            \r\n        }\r\n        for (uint i = 0; i < squads[squadid].nftIds.length; i++) {\r\n            checkNftinSquad[squads[squadid].nftIds[i]] = 0; \r\n        }   \r\n        for (uint i = 0; i < _nftIds.length; i++) {\r\n           checkNftinSquad[_nftIds[i]] = squadid + 1; \r\n        }\r\n\r\n        Squad storage _squad = squads[squadid];        \r\n        delete _squad.nftIds;\r\n        _squad.nftIds = _nftIds;\r\n    }\r\n\r\n    function getMySquadIds() external view returns (uint[] memory mysquads) {        \r\n        mysquads = usersSquads[msg.sender];\r\n    }\r\n\r\n    function getSquadFromId(uint squadid) external view returns (uint hgstlv, uint hgstwins, uint totalpower, uint totalrarity, uint[] memory nftIds) {\r\n        require(squadid < squads.length, \"Invalid id\");\r\n        require(squads[squadid].player == msg.sender, \"Invalid squad owner\");\r\n\r\n        hgstlv = squads[squadid].hgstlv;\r\n        hgstwins = squads[squadid].hgstwins;\r\n        nftIds = squads[squadid].nftIds;\r\n\r\n        totalpower = 0;\r\n        totalrarity = 0;\r\n        for (uint i = 0; i < nftIds.length; i++) {\r\n            uint rarity = 1;\r\n            uint power = 250;\r\n            power = lxrnftToken.tokenMeta(nftIds[i]).power;                              \r\n            if (power >= 250 && power < 500) \r\n                rarity = 2;\r\n            else if (power >= 500 && power < 1000)\r\n                rarity = 3;\r\n            else if (power >= 1000 && power < 2000)\r\n                rarity = 4; \r\n            else\r\n                rarity = 5;\r\n            totalpower += power;\r\n            totalrarity += rarity;\r\n        }      \r\n    }\r\n\r\n    function playGame(uint squadid, uint level) external payable returns (uint rewardslxr, uint currate) {      \r\n        require(msg.value >= minPrice, \"Price is insufficient than minimum value (0.01BNB).\");       \r\n        require(squadid < squads.length, \"Invalid squad id\");\r\n        require(level > 0 && level <= 10, \"Invalid level: 1~10 enabled.\");\r\n\r\n        uint enabletime = DateTimeLibrary.addDays(usersLasttime[msg.sender], 1);        \r\n        if (isCheckOneday) {\r\n            require(enabletime <= block.timestamp, \"You can play once per day with the squad.\");\r\n        }        \r\n\r\n        if (level > squads[squadid].hgstlv + 1) {\r\n            revert(\"Locked level, win 3 more times in lower level.\");    \r\n        }\r\n        else if (level == (squads[squadid].hgstlv + 1) && squads[squadid].hgstwins < 3) {\r\n            revert(\"Locked level, win 3 more times in lower level.\");            \r\n        }\r\n\r\n        uint256 totalpower = 0;\r\n        uint256 totalrarity = 0;\r\n        uint256 counter = 0;        \r\n        uint256 minap = 0;\r\n        uint256 maxap = 0;\r\n        (counter, totalpower, totalrarity) = getSquadInfo(squads[squadid].nftIds);\r\n        (minap, maxap) = getMaxAttackLimit(totalpower, level);\r\n        require(maxap > 0 && minap > 0, \"Not satisfied in level and min attack condition.\");\r\n        \r\n        if (totalpower > maxap)\r\n            totalpower = maxap;        \r\n\r\n        uint256 winrate = uint256(60 * (totalpower - minap) / (maxap - minap) + 20);\r\n\r\n        // Calculate winning rate and rewards loxar tokens\r\n        currate = uint256(rand(0, 100));\r\n        if (currate <= winrate && totalpower > 0) {\r\n            // * 10 ^ 4 preprocessing\r\n            rewardslxr = ((10 ** (decimal - 4)) * (totalpower * 90 +  totalrarity * 3900 - 8800)) / 5;            \r\n        } else {\r\n            rewardslxr = 0;\r\n        }\r\n\r\n        require(rewardslxr <= rewards, \"LXR token is  not sufficient for rewards\");                      \r\n        // Lock all NFT tokens in playing squad.\r\n        for (uint i = 0; i < squads[squadid].nftIds.length; i++) {\r\n            lxrnftToken.setTokenLocked(squads[squadid].nftIds[i], true);\r\n        }\r\n        // Update the last playing time.\r\n        usersLasttime[msg.sender] = block.timestamp;                       \r\n        if (rewardslxr > 0) {            \r\n            Squad storage _squad = squads[squadid]; \r\n            _squad.reward = rewardslxr;\r\n            if (_squad.hgstlv == level) {\r\n                _squad.hgstwins++;\r\n            }\r\n            else if (_squad.hgstlv < level) {\r\n                _squad.hgstlv = level;\r\n                _squad.hgstwins = 1;\r\n            }           \r\n            uint totalrewards = usersRewards[msg.sender] + rewardslxr;\r\n            usersRewards[msg.sender] = totalrewards;\r\n            if (usersLastDate[msg.sender] == 0) {\r\n                usersLastDate[msg.sender] = block.timestamp;\r\n            }\r\n        }\r\n        emit getGameResult(msg.sender, rewardslxr, currate, winrate);\r\n    }\r\n    \r\n    function getAvailableRewards() external view returns (uint) {\r\n        return usersRewards[msg.sender];\r\n    }\r\n\r\n    function getLastWithdrawDateTime() external view returns (uint year, uint month, uint day, uint hour, uint minute, uint second) {        \r\n        (year, month, day, hour, minute, second) = DateTimeLibrary.timestampToDateTime(usersLastDate[msg.sender]);\r\n    }\r\n\r\n    function withdrawRewards() external nonReentrant returns (uint rewardslxr) {\r\n        require(usersLastDate[msg.sender] > 0, \"Invalid last date\");\r\n        require(usersRewards[msg.sender] > 0, \"Insufficient rewards\");\r\n\r\n        rewardslxr = usersRewards[msg.sender];\r\n        uint _days = DateTimeLibrary.diffDays(usersLastDate[msg.sender], block.timestamp);        \r\n        if (_days < 15) {\r\n            rewardslxr -= uint(rewardslxr * (beginfee - dailyfee * _days) / 100);\r\n        }\r\n        usersRewards[msg.sender] = 0;\r\n        usersLastDate[msg.sender] = 0;\r\n        rewards -= rewardslxr;\r\n        lxrToken.transfer(msg.sender, rewardslxr);  \r\n\r\n        emit withdrawGameRewards(msg.sender, rewardslxr, _days);              \r\n    }\r\n\r\n    function withdrawEther(uint256 amount) external payable onlyOwner {\r\n        require(amount <= address(this).balance, \"insufficent Ethers\");\r\n        payable(msg.sender).transfer(amount);\r\n    }\r\n\r\n    function withdrawLXR(uint amount) external onlyOwner {\r\n        require(amount <= lxrToken.balanceOf(address(this)), \"insufficent LXR tokens\");\r\n        lxrToken.transfer(msg.sender, amount);\r\n    }\r\n}\r\n",
  "sourcePath": "E:\\Learn\\simple_nft_game\\contracts\\LXRGame.sol",
  "compiler": {
    "name": "solc",
    "version": "0.8.12+commit.f00d7308.Emscripten.clang"
  },
  "schemaVersion": "3.4.3",
  "updatedAt": "2022-03-12T10:31:16.926Z",
  "networkType": "ethereum",
  "devdoc": {
    "kind": "dev",
    "methods": {
      "owner()": {
        "details": "Returns the address of the current owner."
      },
      "renounceOwnership()": {
        "details": "Leaves the contract without owner. It will not be possible to call `onlyOwner` functions anymore. Can only be called by the current owner. NOTE: Renouncing ownership will leave the contract without an owner, thereby removing any functionality that is only available to the owner."
      },
      "transferOwnership(address)": {
        "details": "Transfers ownership of the contract to a new account (`newOwner`). Can only be called by the current owner."
      }
    },
    "version": 1
  },
  "userdoc": {
    "kind": "user",
    "methods": {},
    "version": 1
  }
}