{
  "contractName": "LXRNFT",
  "abi": [
    {
      "inputs": [],
      "stateMutability": "nonpayable",
      "type": "constructor"
    },
    {
      "anonymous": false,
      "inputs": [
        {
          "indexed": true,
          "internalType": "address",
          "name": "owner",
          "type": "address"
        },
        {
          "indexed": true,
          "internalType": "address",
          "name": "approved",
          "type": "address"
        },
        {
          "indexed": true,
          "internalType": "uint256",
          "name": "tokenId",
          "type": "uint256"
        }
      ],
      "name": "Approval",
      "type": "event"
    },
    {
      "anonymous": false,
      "inputs": [
        {
          "indexed": true,
          "internalType": "address",
          "name": "owner",
          "type": "address"
        },
        {
          "indexed": true,
          "internalType": "address",
          "name": "operator",
          "type": "address"
        },
        {
          "indexed": false,
          "internalType": "bool",
          "name": "approved",
          "type": "bool"
        }
      ],
      "name": "ApprovalForAll",
      "type": "event"
    },
    {
      "anonymous": false,
      "inputs": [
        {
          "indexed": true,
          "internalType": "address",
          "name": "previousOwner",
          "type": "address"
        },
        {
          "indexed": true,
          "internalType": "address",
          "name": "newOwner",
          "type": "address"
        }
      ],
      "name": "OwnershipTransferred",
      "type": "event"
    },
    {
      "anonymous": false,
      "inputs": [
        {
          "indexed": true,
          "internalType": "address",
          "name": "from",
          "type": "address"
        },
        {
          "indexed": true,
          "internalType": "address",
          "name": "to",
          "type": "address"
        },
        {
          "indexed": true,
          "internalType": "uint256",
          "name": "tokenId",
          "type": "uint256"
        }
      ],
      "name": "Transfer",
      "type": "event"
    },
    {
      "inputs": [
        {
          "internalType": "address",
          "name": "to",
          "type": "address"
        },
        {
          "internalType": "uint256",
          "name": "tokenId",
          "type": "uint256"
        }
      ],
      "name": "approve",
      "outputs": [],
      "stateMutability": "nonpayable",
      "type": "function"
    },
    {
      "inputs": [
        {
          "internalType": "address",
          "name": "owner",
          "type": "address"
        }
      ],
      "name": "balanceOf",
      "outputs": [
        {
          "internalType": "uint256",
          "name": "",
          "type": "uint256"
        }
      ],
      "stateMutability": "view",
      "type": "function",
      "constant": true
    },
    {
      "inputs": [
        {
          "internalType": "uint256",
          "name": "tokenId",
          "type": "uint256"
        }
      ],
      "name": "getApproved",
      "outputs": [
        {
          "internalType": "address",
          "name": "",
          "type": "address"
        }
      ],
      "stateMutability": "view",
      "type": "function",
      "constant": true
    },
    {
      "inputs": [
        {
          "internalType": "address",
          "name": "owner",
          "type": "address"
        },
        {
          "internalType": "address",
          "name": "operator",
          "type": "address"
        }
      ],
      "name": "isApprovedForAll",
      "outputs": [
        {
          "internalType": "bool",
          "name": "",
          "type": "bool"
        }
      ],
      "stateMutability": "view",
      "type": "function",
      "constant": true
    },
    {
      "inputs": [],
      "name": "name",
      "outputs": [
        {
          "internalType": "string",
          "name": "",
          "type": "string"
        }
      ],
      "stateMutability": "view",
      "type": "function",
      "constant": true
    },
    {
      "inputs": [],
      "name": "owner",
      "outputs": [
        {
          "internalType": "address",
          "name": "",
          "type": "address"
        }
      ],
      "stateMutability": "view",
      "type": "function",
      "constant": true
    },
    {
      "inputs": [
        {
          "internalType": "uint256",
          "name": "tokenId",
          "type": "uint256"
        }
      ],
      "name": "ownerOf",
      "outputs": [
        {
          "internalType": "address",
          "name": "",
          "type": "address"
        }
      ],
      "stateMutability": "view",
      "type": "function",
      "constant": true
    },
    {
      "inputs": [],
      "name": "renounceOwnership",
      "outputs": [],
      "stateMutability": "nonpayable",
      "type": "function"
    },
    {
      "inputs": [
        {
          "internalType": "address",
          "name": "from",
          "type": "address"
        },
        {
          "internalType": "address",
          "name": "to",
          "type": "address"
        },
        {
          "internalType": "uint256",
          "name": "tokenId",
          "type": "uint256"
        }
      ],
      "name": "safeTransferFrom",
      "outputs": [],
      "stateMutability": "nonpayable",
      "type": "function"
    },
    {
      "inputs": [
        {
          "internalType": "address",
          "name": "from",
          "type": "address"
        },
        {
          "internalType": "address",
          "name": "to",
          "type": "address"
        },
        {
          "internalType": "uint256",
          "name": "tokenId",
          "type": "uint256"
        },
        {
          "internalType": "bytes",
          "name": "_data",
          "type": "bytes"
        }
      ],
      "name": "safeTransferFrom",
      "outputs": [],
      "stateMutability": "nonpayable",
      "type": "function"
    },
    {
      "inputs": [
        {
          "internalType": "address",
          "name": "operator",
          "type": "address"
        },
        {
          "internalType": "bool",
          "name": "approved",
          "type": "bool"
        }
      ],
      "name": "setApprovalForAll",
      "outputs": [],
      "stateMutability": "nonpayable",
      "type": "function"
    },
    {
      "inputs": [
        {
          "internalType": "bytes4",
          "name": "interfaceId",
          "type": "bytes4"
        }
      ],
      "name": "supportsInterface",
      "outputs": [
        {
          "internalType": "bool",
          "name": "",
          "type": "bool"
        }
      ],
      "stateMutability": "view",
      "type": "function",
      "constant": true
    },
    {
      "inputs": [],
      "name": "symbol",
      "outputs": [
        {
          "internalType": "string",
          "name": "",
          "type": "string"
        }
      ],
      "stateMutability": "view",
      "type": "function",
      "constant": true
    },
    {
      "inputs": [
        {
          "internalType": "uint256",
          "name": "tokenId",
          "type": "uint256"
        }
      ],
      "name": "tokenURI",
      "outputs": [
        {
          "internalType": "string",
          "name": "",
          "type": "string"
        }
      ],
      "stateMutability": "view",
      "type": "function",
      "constant": true
    },
    {
      "inputs": [
        {
          "internalType": "address",
          "name": "from",
          "type": "address"
        },
        {
          "internalType": "address",
          "name": "to",
          "type": "address"
        },
        {
          "internalType": "uint256",
          "name": "tokenId",
          "type": "uint256"
        }
      ],
      "name": "transferFrom",
      "outputs": [],
      "stateMutability": "nonpayable",
      "type": "function"
    },
    {
      "inputs": [
        {
          "internalType": "address",
          "name": "newOwner",
          "type": "address"
        }
      ],
      "name": "transferOwnership",
      "outputs": [],
      "stateMutability": "nonpayable",
      "type": "function"
    },
    {
      "inputs": [
        {
          "internalType": "string",
          "name": "_newBaseURI",
          "type": "string"
        }
      ],
      "name": "setBaseURI",
      "outputs": [],
      "stateMutability": "nonpayable",
      "type": "function"
    },
    {
      "inputs": [
        {
          "internalType": "address",
          "name": "_lxrgame",
          "type": "address"
        }
      ],
      "name": "setLoxarGame",
      "outputs": [],
      "stateMutability": "nonpayable",
      "type": "function"
    },
    {
      "inputs": [
        {
          "internalType": "uint256",
          "name": "_newmintPhases",
          "type": "uint256"
        }
      ],
      "name": "setMintPhases",
      "outputs": [],
      "stateMutability": "nonpayable",
      "type": "function"
    },
    {
      "inputs": [
        {
          "internalType": "address",
          "name": "sender",
          "type": "address"
        }
      ],
      "name": "isWhitelist",
      "outputs": [
        {
          "internalType": "bool",
          "name": "",
          "type": "bool"
        }
      ],
      "stateMutability": "view",
      "type": "function",
      "constant": true
    },
    {
      "inputs": [
        {
          "internalType": "address[]",
          "name": "_whitelist",
          "type": "address[]"
        }
      ],
      "name": "addWhitelist",
      "outputs": [],
      "stateMutability": "nonpayable",
      "type": "function"
    },
    {
      "inputs": [],
      "name": "getAllOnSale",
      "outputs": [
        {
          "components": [
            {
              "internalType": "uint256",
              "name": "id",
              "type": "uint256"
            },
            {
              "internalType": "uint256",
              "name": "price",
              "type": "uint256"
            },
            {
              "internalType": "uint256",
              "name": "power",
              "type": "uint256"
            },
            {
              "internalType": "bool",
              "name": "sale",
              "type": "bool"
            },
            {
              "internalType": "uint256",
              "name": "locktime",
              "type": "uint256"
            }
          ],
          "internalType": "struct LXRNFT.TokenMeta[]",
          "name": "",
          "type": "tuple[]"
        }
      ],
      "stateMutability": "view",
      "type": "function",
      "constant": true
    },
    {
      "inputs": [
        {
          "internalType": "uint256",
          "name": "_tokenId",
          "type": "uint256"
        },
        {
          "internalType": "bool",
          "name": "_sale",
          "type": "bool"
        },
        {
          "internalType": "uint256",
          "name": "_price",
          "type": "uint256"
        }
      ],
      "name": "setTokenSale",
      "outputs": [],
      "stateMutability": "nonpayable",
      "type": "function"
    },
    {
      "inputs": [
        {
          "internalType": "uint256",
          "name": "_tokenId",
          "type": "uint256"
        },
        {
          "internalType": "bool",
          "name": "_lock",
          "type": "bool"
        }
      ],
      "name": "setTokenLocked",
      "outputs": [],
      "stateMutability": "nonpayable",
      "type": "function"
    },
    {
      "inputs": [
        {
          "internalType": "uint256",
          "name": "_tokenId",
          "type": "uint256"
        },
        {
          "internalType": "uint256",
          "name": "_price",
          "type": "uint256"
        }
      ],
      "name": "setTokenPrice",
      "outputs": [],
      "stateMutability": "nonpayable",
      "type": "function"
    },
    {
      "inputs": [
        {
          "internalType": "uint256",
          "name": "tokenId",
          "type": "uint256"
        }
      ],
      "name": "tokenPrice",
      "outputs": [
        {
          "internalType": "uint256",
          "name": "",
          "type": "uint256"
        }
      ],
      "stateMutability": "view",
      "type": "function",
      "constant": true
    },
    {
      "inputs": [],
      "name": "tokenMintedCount",
      "outputs": [
        {
          "internalType": "uint256",
          "name": "",
          "type": "uint256"
        }
      ],
      "stateMutability": "view",
      "type": "function",
      "constant": true
    },
    {
      "inputs": [],
      "name": "myNFTs",
      "outputs": [
        {
          "internalType": "uint256[]",
          "name": "",
          "type": "uint256[]"
        }
      ],
      "stateMutability": "view",
      "type": "function",
      "constant": true
    },
    {
      "inputs": [
        {
          "internalType": "uint256",
          "name": "_tokenId",
          "type": "uint256"
        }
      ],
      "name": "tokenMeta",
      "outputs": [
        {
          "components": [
            {
              "internalType": "uint256",
              "name": "id",
              "type": "uint256"
            },
            {
              "internalType": "uint256",
              "name": "price",
              "type": "uint256"
            },
            {
              "internalType": "uint256",
              "name": "power",
              "type": "uint256"
            },
            {
              "internalType": "bool",
              "name": "sale",
              "type": "bool"
            },
            {
              "internalType": "uint256",
              "name": "locktime",
              "type": "uint256"
            }
          ],
          "internalType": "struct LXRNFT.TokenMeta",
          "name": "",
          "type": "tuple"
        }
      ],
      "stateMutability": "view",
      "type": "function",
      "constant": true
    },
    {
      "inputs": [
        {
          "internalType": "uint256",
          "name": "_tokenId",
          "type": "uint256"
        }
      ],
      "name": "purchaseToken",
      "outputs": [],
      "stateMutability": "payable",
      "type": "function",
      "payable": true
    },
    {
      "inputs": [],
      "name": "mintToken",
      "outputs": [
        {
          "internalType": "uint256",
          "name": "",
          "type": "uint256"
        }
      ],
      "stateMutability": "payable",
      "type": "function",
      "payable": true
    },
    {
      "inputs": [
        {
          "internalType": "address",
          "name": "_to",
          "type": "address"
        },
        {
          "internalType": "uint256",
          "name": "_count",
          "type": "uint256"
        }
      ],
      "name": "mintAdmin",
      "outputs": [],
      "stateMutability": "nonpayable",
      "type": "function"
    },
    {
      "inputs": [
        {
          "internalType": "int256",
          "name": "_usdPrice",
          "type": "int256"
        }
      ],
      "name": "_getPrice",
      "outputs": [
        {
          "internalType": "int256",
          "name": "",
          "type": "int256"
        }
      ],
      "stateMutability": "view",
      "type": "function",
      "constant": true
    }
  ],
  "bytecode": "0x60806040523480156200001157600080fd5b50604080518082018252600c81526b131bde185c9a585b8813919560a21b6020808301918252835180850190945260048452631316149560e21b908401528151919291620000629160009162000156565b5080516200007890600190602084019062000156565b505050620000956200008f6200010060201b60201c565b62000104565b600160075560408051606081019091526022808252620033c660208301398051620000c99160099160209091019062000156565b5060c8600b556000600a55601080546001600160a01b031916732514895c72f50d8bd4b4f9b1110f0d6bd2c9752617905562000239565b3390565b600680546001600160a01b038381166001600160a01b0319831681179093556040519116919082907f8be0079c531659141344cd1fd0a4f28419497f9722a3daafe3b4186f6b6457e090600090a35050565b8280546200016490620001fc565b90600052602060002090601f016020900481019282620001885760008555620001d3565b82601f10620001a357805160ff1916838001178555620001d3565b82800160010185558215620001d3579182015b82811115620001d3578251825591602001919060010190620001b6565b50620001e1929150620001e5565b5090565b5b80821115620001e15760008155600101620001e6565b600181811c908216806200021157607f821691505b602082108114156200023357634e487b7160e01b600052602260045260246000fd5b50919050565b61317d80620002496000396000f3fe60806040526004361061017e5760003560e01c806301ffc9a71461018357806306fdde03146101b8578063081812fc146101da578063095ea7b3146102125780630ae7a310146102345780630e27c3aa1461026157806319ee11ab1461028f5780632004ffd9146102a457806323b872dd146102ac57806342842e0e146102cc5780634b14406f146102ec57806355f804b31461030c5780636352211e1461032c5780636387ede61461034c57806370a082311461036c578063715018a61461038c5780638da5cb5b146103a157806390894559146103b657806395d89b41146103d857806396fe300e146103ed5780639c0c69971461040d578063a22cb4651461042d578063b88d4fde1461044d578063c2db2c421461046d578063c3a7199914610480578063c683630d146104a0578063c87b56dd146104c0578063d4ddce8a146104e0578063e047829814610500578063e985e9c514610522578063eb685c4714610542578063edac985b14610562578063f2fde38b14610582575b600080fd5b34801561018f57600080fd5b506101a361019e3660046127ed565b6105a2565b60405190151581526020015b60405180910390f35b3480156101c457600080fd5b506101cd6105f4565b6040516101af9190612862565b3480156101e657600080fd5b506101fa6101f5366004612875565b610686565b6040516001600160a01b0390911681526020016101af565b34801561021e57600080fd5b5061023261022d3660046128aa565b610713565b005b34801561024057600080fd5b5061025461024f366004612875565b610824565b6040516101af9190612906565b34801561026d57600080fd5b5061028161027c366004612875565b6108a5565b6040519081526020016101af565b34801561029b57600080fd5b50610281610991565b6102816109a1565b3480156102b857600080fd5b506102326102c7366004612914565b610ce1565b3480156102d857600080fd5b506102326102e7366004612914565b610d12565b3480156102f857600080fd5b50610232610307366004612950565b610d2d565b34801561031857600080fd5b50610232610327366004612a08565b610d7e565b34801561033857600080fd5b506101fa610347366004612875565b610dc4565b34801561035857600080fd5b50610232610367366004612a60565b610e3b565b34801561037857600080fd5b50610281610387366004612950565b610ee6565b34801561039857600080fd5b50610232610f6d565b3480156103ad57600080fd5b506101fa610fa8565b3480156103c257600080fd5b506103cb610fb7565b6040516101af9190612a85565b3480156103e457600080fd5b506101cd61113b565b3480156103f957600080fd5b50610232610408366004612875565b61114a565b34801561041957600080fd5b50610232610428366004612ad3565b611190565b34801561043957600080fd5b50610232610448366004612aff565b61125c565b34801561045957600080fd5b50610232610468366004612b29565b61131d565b61023261047b366004612875565b611355565b34801561048c57600080fd5b5061023261049b3660046128aa565b6115bb565b3480156104ac57600080fd5b506101a36104bb366004612950565b6116d2565b3480156104cc57600080fd5b506101cd6104db366004612875565b6116f0565b3480156104ec57600080fd5b506102816104fb366004612875565b6117bb565b34801561050c57600080fd5b506105156117f8565b6040516101af9190612ba4565b34801561052e57600080fd5b506101a361053d366004612bdc565b611958565b34801561054e57600080fd5b5061023261055d366004612c06565b611986565b34801561056e57600080fd5b5061023261057d366004612c28565b6119dd565b34801561058e57600080fd5b5061023261059d366004612950565b611a74565b60006001600160e01b031982166380ac58cd60e01b14806105d357506001600160e01b03198216635b5e139f60e01b145b806105ee57506301ffc9a760e01b6001600160e01b03198316145b92915050565b60606000805461060390612cd4565b80601f016020809104026020016040519081016040528092919081815260200182805461062f90612cd4565b801561067c5780601f106106515761010080835404028352916020019161067c565b820191906000526020600020905b81548152906001019060200180831161065f57829003601f168201915b5050505050905090565b600061069182611b11565b6106f75760405162461bcd60e51b815260206004820152602c60248201527f4552433732313a20617070726f76656420717565727920666f72206e6f6e657860448201526b34b9ba32b73a103a37b5b2b760a11b60648201526084015b60405180910390fd5b506000908152600460205260409020546001600160a01b031690565b600061071e82610dc4565b9050806001600160a01b0316836001600160a01b0316141561078c5760405162461bcd60e51b815260206004820152602160248201527f4552433732313a20617070726f76616c20746f2063757272656e74206f776e656044820152603960f91b60648201526084016106ee565b336001600160a01b03821614806107a857506107a88133611958565b6108155760405162461bcd60e51b815260206004820152603860248201527f4552433732313a20617070726f76652063616c6c6572206973206e6f74206f776044820152771b995c881b9bdc88185c1c1c9bdd995908199bdc88185b1b60421b60648201526084016106ee565b61081f8383611b2e565b505050565b61082c61270d565b61083582611b11565b6108515760405162461bcd60e51b81526004016106ee90612d0f565b506000908152600f6020908152604091829020825160a08101845281548152600182015492810192909252600281015492820192909252600382015460ff1615156060820152600490910154608082015290565b6000600a54600014156108c1575067058d15e176280000919050565b600a54600114156108db5750670214e8348c4f0000919050565b6000806000806000601060009054906101000a90046001600160a01b03166001600160a01b031663feaf968c6040518163ffffffff1660e01b815260040160a060405180830381865afa158015610936573d6000803e3d6000fd5b505050506040513d601f19601f8201168201806040525081019061095a9190612d4e565b9450945094509450945083876a52b7d2dcc80cd2e400000061097c9190612db4565b6109869190612e4f565b979650505050505050565b600061099c60085490565b905090565b6000600260075414156109c65760405162461bcd60e51b81526004016106ee90612e7d565b6002600755336109e85760405162461bcd60e51b81526004016106ee90612eb4565b60006109f5600b546108a5565b9050600a5460001415610b1957611388610a0e60085490565b1115610a575760405162461bcd60e51b81526020600482015260186024820152770506861736520313a206f766572666c6f77656420353030360441b60448201526064016106ee565b610a60336116d2565b1515600114610aa95760405162461bcd60e51b81526020600482015260156024820152746e6f742077686974656c697374206164647265737360581b60448201526064016106ee565b336000908152600e6020526040902054600511610b145760405162461bcd60e51b815260206004820152602360248201527f412077686974656c6973742063616e2068617665206d6178696d756d2035204e60448201526246547360e81b60648201526084016106ee565b610be3565b600a5460011415610be357612710610b3060085490565b1115610b7a5760405162461bcd60e51b81526020600482015260196024820152780506861736520323a206f766572666c6f77656420313030303603c1b60448201526064016106ee565b336000908152600e6020526040902054600a11610be35760405162461bcd60e51b815260206004820152602160248201527f412077616c6c65742063616e2068617665206d6178696d756d203130204e46546044820152607360f81b60648201526084016106ee565b80341015610c035760405162461bcd60e51b81526004016106ee90612edc565b610c0b610fa8565b6001600160a01b03166108fc349081150290604051600060405180830381858888f19350505050158015610c43573d6000803e3d6000fd5b50610c56610c4f610fa8565b600161125c565b610c64600880546001019055565b6000610c6f60085490565b9050610c7b3382611b9c565b336000908152600e60205260408120805491610c9683612f08565b9190505550610cd6816040518060a00160405280848152602001858152602001610cc06000611cc8565b8152600060208201819052604090910152612119565b915050600160075590565b610ceb338261218a565b610d075760405162461bcd60e51b81526004016106ee90612f23565b61081f838383612254565b61081f8383836040518060200160405280600081525061131d565b33610d36610fa8565b6001600160a01b031614610d5c5760405162461bcd60e51b81526004016106ee90612f74565b600c80546001600160a01b0319166001600160a01b0392909216919091179055565b33610d87610fa8565b6001600160a01b031614610dad5760405162461bcd60e51b81526004016106ee90612f74565b8051610dc090600990602084019061273e565b5050565b6000818152600260205260408120546001600160a01b0316806105ee5760405162461bcd60e51b815260206004820152602960248201527f4552433732313a206f776e657220717565727920666f72206e6f6e657869737460448201526832b73a103a37b5b2b760b91b60648201526084016106ee565b610e4483611b11565b610e605760405162461bcd60e51b81526004016106ee90612d0f565b60008111610ea05760405162461bcd60e51b815260206004820152600d60248201526c496e76616c696420707269636560981b60448201526064016106ee565b33610eaa84610dc4565b6001600160a01b031614610ebd57600080fd5b6000928352600f602052604090922060038101805460ff19169215159290921790915560010155565b60006001600160a01b038216610f515760405162461bcd60e51b815260206004820152602a60248201527f4552433732313a2062616c616e636520717565727920666f7220746865207a65604482015269726f206164647265737360b01b60648201526084016106ee565b506001600160a01b031660009081526003602052604090205490565b33610f76610fa8565b6001600160a01b031614610f9c5760405162461bcd60e51b81526004016106ee90612f74565b610fa660006123ed565b565b6006546001600160a01b031690565b6060600060015b600854610fcc906001612fa9565b811015611012576000818152600f602052604090206003015460ff161515600114156110005781610ffc81612f08565b9250505b8061100a81612f08565b915050610fbe565b506000816001600160401b0381111561102d5761102d61296b565b60405190808252806020026020018201604052801561106657816020015b61105361270d565b81526020019060019003908161104b5790505b5060009250905060015b60085461107e906001612fa9565b811015611134576000818152600f602052604090206003015460ff16151560011415611122576000818152600f6020908152604091829020825160a08101845281548152600182015492810192909252600281015492820192909252600382015460ff16151560608201526004909101546080820152825183908590811061110857611108612fc1565b6020026020010181905250828061111e90612f08565b9350505b8061112c81612f08565b915050611070565b5092915050565b60606001805461060390612cd4565b33611153610fa8565b6001600160a01b0316146111795760405162461bcd60e51b81526004016106ee90612f74565b600a819055600181111561118d57600a600b555b50565b61119982611b11565b6111b55760405162461bcd60e51b81526004016106ee90612d0f565b336111bf83610dc4565b6001600160a01b031614806111de5750600c546001600160a01b031633145b6112185760405162461bcd60e51b815260206004820152600b60248201526a139bdd08185b1b1bddd95960aa1b60448201526064016106ee565b600061122542600161243f565b90508115611246576000838152600f60205260409020600401819055505050565b50506000908152600f6020526040812060040155565b6001600160a01b0382163314156112b15760405162461bcd60e51b815260206004820152601960248201527822a9219b99189d1030b8383937bb32903a379031b0b63632b960391b60448201526064016106ee565b3360008181526005602090815260408083206001600160a01b03871680855290835292819020805460ff191686151590811790915590519081529192917f17307eab39ab6107e8899845ad3d59bd9653f200f220920489ca2b5937696c31910160405180910390a35050565b611327338361218a565b6113435760405162461bcd60e51b81526004016106ee90612f23565b61134f84848484612467565b50505050565b600260075414156113785760405162461bcd60e51b81526004016106ee90612e7d565b600260075533158015906113a6575061139081610dc4565b6001600160a01b0316336001600160a01b031614155b6113c25760405162461bcd60e51b81526004016106ee90612eb4565b6000818152600f60205260409020600101543410156113f35760405162461bcd60e51b81526004016106ee90612edc565b6000818152600f602052604090206003015460ff1615156001146114505760405162461bcd60e51b81526020600482015260146024820152734e6f7420616c6c6f77656420666f722073616c6560601b60448201526064016106ee565b600a546002146114945760405162461bcd60e51b815260206004820152600f60248201526e4e6f7420616c6c6f776564206e6f7760881b60448201526064016106ee565b600061149f82610dc4565b90506000816001600160a01b03163460405160006040518083038185875af1925050503d80600081146114ee576040519150601f19603f3d011682016040523d82523d6000602084013e6114f3565b606091505b505090508061153b5760405162461bcd60e51b81526020600482015260146024820152732330b4b632b2103a379039b2b7321032ba3432b960611b60448201526064016106ee565b61154682600161125c565b611551823385612254565b6000838152600f60209081526040808320600301805460ff191690556001600160a01b0385168352600e909152812080549161158c83612fd7565b9091555050336000908152600e602052604081208054916115ac83612f08565b90915550506001600755505050565b336115c4610fa8565b6001600160a01b0316146115ea5760405162461bcd60e51b81526004016106ee90612f74565b6001600160a01b0382166116335760405162461bcd60e51b815260206004820152601060248201526f24b73b30b634b2103932b1b2b4bb32b960811b60448201526064016106ee565b6000611640600b546108a5565b905060005b8281101561134f5761165b600880546001019055565b600061166660085490565b90506116728582611b9c565b6001600160a01b0385166000908152600e6020526040812080549161169683612f08565b91905055506116bf816040518060a00160405280848152602001868152602001610cc086611cc8565b50806116ca81612f08565b915050611645565b6001600160a01b03166000908152600d602052604090205460ff1690565b60606116fb82611b11565b61175f5760405162461bcd60e51b815260206004820152602f60248201527f4552433732314d657461646174613a2055524920717565727920666f72206e6f60448201526e3732bc34b9ba32b73a103a37b5b2b760891b60648201526084016106ee565b600061176961249a565b9050600081511161178957604051806020016040528060008152506117b4565b80611793846124a9565b6040516020016117a4929190612fee565b6040516020818303038152906040525b9392505050565b60006117c682611b11565b6117e25760405162461bcd60e51b81526004016106ee90612d0f565b506000908152600f602052604090206001015490565b6060336118395760405162461bcd60e51b815260206004820152600f60248201526e496e76616c6964206164647265737360881b60448201526064016106ee565b600060015b60085461184c906001612fa9565b8110156118955761185c81610dc4565b6001600160a01b0316336001600160a01b03161415611883578161187f81612f08565b9250505b8061188d81612f08565b91505061183e565b506000816001600160401b038111156118b0576118b061296b565b6040519080825280602002602001820160405280156118d9578160200160208202803683370190505b5060009250905060015b6008546118f1906001612fa9565b8110156111345761190181610dc4565b6001600160a01b0316336001600160a01b03161415611946578082848151811061192d5761192d612fc1565b60209081029190910101528261194281612f08565b9350505b8061195081612f08565b9150506118e3565b6001600160a01b03918216600090815260056020908152604080832093909416825291909152205460ff1690565b61198f82611b11565b6119ab5760405162461bcd60e51b81526004016106ee90612d0f565b336119b583610dc4565b6001600160a01b0316146119c857600080fd5b6000918252600f602052604090912060010155565b336119e6610fa8565b6001600160a01b031614611a0c5760405162461bcd60e51b81526004016106ee90612f74565b60005b8151811015610dc0576001600d6000848481518110611a3057611a30612fc1565b6020908102919091018101516001600160a01b03168252810191909152604001600020805460ff191691151591909117905580611a6c81612f08565b915050611a0f565b33611a7d610fa8565b6001600160a01b031614611aa35760405162461bcd60e51b81526004016106ee90612f74565b6001600160a01b038116611b085760405162461bcd60e51b815260206004820152602660248201527f4f776e61626c653a206e6577206f776e657220697320746865207a65726f206160448201526564647265737360d01b60648201526084016106ee565b61118d816123ed565b6000908152600260205260409020546001600160a01b0316151590565b600081815260046020526040902080546001600160a01b0319166001600160a01b0384169081179091558190611b6382610dc4565b6001600160a01b03167f8c5be1e5ebec7d5bd14f71427d1e84f3dd0314c0f7b2291e5b200ac8c7c3b92560405160405180910390a45050565b6001600160a01b038216611bf25760405162461bcd60e51b815260206004820181905260248201527f4552433732313a206d696e7420746f20746865207a65726f206164647265737360448201526064016106ee565b611bfb81611b11565b15611c475760405162461bcd60e51b815260206004820152601c60248201527b115490cdcc8c4e881d1bdad95b88185b1c9958591e481b5a5b9d195960221b60448201526064016106ee565b611c53600083836125a6565b6001600160a01b0382166000908152600360205260408120805460019290611c7c908490612fa9565b909155505060008181526002602052604080822080546001600160a01b0319166001600160a01b0386169081179091559051839290600080516020613128833981519152908290a45050565b60408051426020808301919091528183018490528251808303840181526060909201909252805191012060009081611d0160648361301d565b611d0c906001612fa9565b60408051600580825260c082019092529192506064916000916020820160a0803683375050600a5491925050611de657600081600081518110611d5157611d51612fc1565b602002602001018181525050600081600181518110611d7257611d72612fc1565b602002602001018181525050603c81600281518110611d9357611d93612fc1565b602002602001018181525050601e81600381518110611db457611db4612fc1565b602002602001018181525050600a81600481518110611dd557611dd5612fc1565b602002602001018181525050611f30565b600a5460011415611e8a57600081600081518110611e0657611e06612fc1565b602002602001018181525050604b81600181518110611e2757611e27612fc1565b602002602001018181525050601181600281518110611e4857611e48612fc1565b602002602001018181525050600681600381518110611e6957611e69612fc1565b602002602001018181525050600281600481518110611dd557611dd5612fc1565b604b81600081518110611e9f57611e9f612fc1565b602002602001018181525050601181600181518110611ec057611ec0612fc1565b602002602001018181525050600681600281518110611ee157611ee1612fc1565b602002602001018181525050600281600381518110611f0257611f02612fc1565b602002602001018181525050600081600481518110611f2357611f23612fc1565b6020026020010181815250505b80600081518110611f4357611f43612fc1565b60200260200101518311611f6e57611f5c60968561301d565b611f67906064612fa9565b9150612110565b80600181518110611f8157611f81612fc1565b602002602001015181600081518110611f9c57611f9c612fc1565b6020026020010151611fae9190612fa9565b8311611fca57611fbf60fa8561301d565b611f679060fa612fa9565b80600281518110611fdd57611fdd612fc1565b602002602001015181600181518110611ff857611ff8612fc1565b60200260200101518260008151811061201357612013612fc1565b60200260200101516120259190612fa9565b61202f9190612fa9565b831161204d576120416101f48561301d565b611f67906101f4612fa9565b8060038151811061206057612060612fc1565b60200260200101518160028151811061207b5761207b612fc1565b60200260200101518260018151811061209657612096612fc1565b6020026020010151836000815181106120b1576120b1612fc1565b60200260200101516120c39190612fa9565b6120cd9190612fa9565b6120d79190612fa9565b83116120f5576120e96103e88561301d565b611f67906103e8612fa9565b6121016103e88561301d565b61210d906107d0612fa9565b91505b50949350505050565b61212282611b11565b61213e5760405162461bcd60e51b81526004016106ee90612d0f565b6000918252600f602090815260409283902082518155908201516001820155918101516002830155606081015160038301805460ff191691151591909117905560800151600490910155565b600061219582611b11565b6121f65760405162461bcd60e51b815260206004820152602c60248201527f4552433732313a206f70657261746f7220717565727920666f72206e6f6e657860448201526b34b9ba32b73a103a37b5b2b760a11b60648201526084016106ee565b600061220183610dc4565b9050806001600160a01b0316846001600160a01b0316148061223c5750836001600160a01b031661223184610686565b6001600160a01b0316145b8061224c575061224c8185611958565b949350505050565b826001600160a01b031661226782610dc4565b6001600160a01b0316146122cf5760405162461bcd60e51b815260206004820152602960248201527f4552433732313a207472616e73666572206f6620746f6b656e2074686174206960448201526839903737ba1037bbb760b91b60648201526084016106ee565b6001600160a01b0382166123315760405162461bcd60e51b8152602060048201526024808201527f4552433732313a207472616e7366657220746f20746865207a65726f206164646044820152637265737360e01b60648201526084016106ee565b61233c8383836125a6565b612347600082611b2e565b6001600160a01b0383166000908152600360205260408120805460019290612370908490613031565b90915550506001600160a01b038216600090815260036020526040812080546001929061239e908490612fa9565b909155505060008181526002602052604080822080546001600160a01b0319166001600160a01b03868116918217909255915184939187169160008051602061312883398151915291a4505050565b600680546001600160a01b038381166001600160a01b0319831681179093556040519116919082907f8be0079c531659141344cd1fd0a4f28419497f9722a3daafe3b4186f6b6457e090600090a35050565b600061244e6201518083613048565b6124589084612fa9565b9050828110156105ee57600080fd5b612472848484612254565b61247e8484848461260f565b61134f5760405162461bcd60e51b81526004016106ee90613067565b60606009805461060390612cd4565b6060816124cd5750506040805180820190915260018152600360fc1b602082015290565b8160005b81156124f757806124e181612f08565b91506124f09050600a836130b9565b91506124d1565b6000816001600160401b038111156125115761251161296b565b6040519080825280601f01601f19166020018201604052801561253b576020820181803683370190505b5090505b841561224c57612550600183613031565b915061255d600a8661301d565b612568906030612fa9565b60f81b81838151811061257d5761257d612fc1565b60200101906001600160f81b031916908160001a90535061259f600a866130b9565b945061253f565b6000818152600f602052604090206004015415806125d457506000818152600f602052604090206004015442115b61081f5760405162461bcd60e51b815260206004820152600c60248201526b151bdad95b881b1bd8dad95960a21b60448201526064016106ee565b60006001600160a01b0384163b1561270257604051630a85bd0160e11b81526001600160a01b0385169063150b7a02906126539033908990889088906004016130cd565b6020604051808303816000875af192505050801561268e575060408051601f3d908101601f1916820190925261268b9181019061310a565b60015b6126e8573d8080156126bc576040519150601f19603f3d011682016040523d82523d6000602084013e6126c1565b606091505b5080516126e05760405162461bcd60e51b81526004016106ee90613067565b805181602001fd5b6001600160e01b031916630a85bd0160e11b14905061224c565b506001949350505050565b6040518060a00160405280600081526020016000815260200160008152602001600015158152602001600081525090565b82805461274a90612cd4565b90600052602060002090601f01602090048101928261276c57600085556127b2565b82601f1061278557805160ff19168380011785556127b2565b828001600101855582156127b2579182015b828111156127b2578251825591602001919060010190612797565b506127be9291506127c2565b5090565b5b808211156127be57600081556001016127c3565b6001600160e01b03198116811461118d57600080fd5b6000602082840312156127ff57600080fd5b81356117b4816127d7565b60005b8381101561282557818101518382015260200161280d565b8381111561134f5750506000910152565b6000815180845261284e81602086016020860161280a565b601f01601f19169290920160200192915050565b6020815260006117b46020830184612836565b60006020828403121561288757600080fd5b5035919050565b80356001600160a01b03811681146128a557600080fd5b919050565b600080604083850312156128bd57600080fd5b6128c68361288e565b946020939093013593505050565b805182526020810151602083015260408101516040830152606081015115156060830152608081015160808301525050565b60a081016105ee82846128d4565b60008060006060848603121561292957600080fd5b6129328461288e565b92506129406020850161288e565b9150604084013590509250925092565b60006020828403121561296257600080fd5b6117b48261288e565b634e487b7160e01b600052604160045260246000fd5b604051601f8201601f191681016001600160401b03811182821017156129a9576129a961296b565b604052919050565b60006001600160401b038311156129ca576129ca61296b565b6129dd601f8401601f1916602001612981565b90508281528383830111156129f157600080fd5b828260208301376000602084830101529392505050565b600060208284031215612a1a57600080fd5b81356001600160401b03811115612a3057600080fd5b8201601f81018413612a4157600080fd5b61224c848235602084016129b1565b803580151581146128a557600080fd5b600080600060608486031215612a7557600080fd5b8335925061294060208501612a50565b6020808252825182820181905260009190848201906040850190845b81811015612ac757612ab48385516128d4565b9284019260a09290920191600101612aa1565b50909695505050505050565b60008060408385031215612ae657600080fd5b82359150612af660208401612a50565b90509250929050565b60008060408385031215612b1257600080fd5b612b1b8361288e565b9150612af660208401612a50565b60008060008060808587031215612b3f57600080fd5b612b488561288e565b9350612b566020860161288e565b92506040850135915060608501356001600160401b03811115612b7857600080fd5b8501601f81018713612b8957600080fd5b612b98878235602084016129b1565b91505092959194509250565b6020808252825182820181905260009190848201906040850190845b81811015612ac757835183529284019291840191600101612bc0565b60008060408385031215612bef57600080fd5b612bf88361288e565b9150612af66020840161288e565b60008060408385031215612c1957600080fd5b50508035926020909101359150565b60006020808385031215612c3b57600080fd5b82356001600160401b0380821115612c5257600080fd5b818501915085601f830112612c6657600080fd5b813581811115612c7857612c7861296b565b8060051b9150612c89848301612981565b8181529183018401918481019088841115612ca357600080fd5b938501935b83851015612cc857612cb98561288e565b82529385019390850190612ca8565b98975050505050505050565b600181811c90821680612ce857607f821691505b60208210811415612d0957634e487b7160e01b600052602260045260246000fd5b50919050565b6020808252600e908201526d27379032bc34b9ba103a37b5b2b760911b604082015260600190565b80516001600160501b03811681146128a557600080fd5b600080600080600060a08688031215612d6657600080fd5b612d6f86612d37565b9450602086015193506040860151925060608601519150612d9260808701612d37565b90509295509295909350565b634e487b7160e01b600052601160045260246000fd5b60006001600160ff1b0381841382841380821686840486111615612dda57612dda612d9e565b600160ff1b6000871282811687830589121615612df957612df9612d9e565b60008712925087820587128484161615612e1557612e15612d9e565b87850587128184161615612e2b57612e2b612d9e565b505050929093029392505050565b634e487b7160e01b600052601260045260246000fd5b600082612e5e57612e5e612e39565b600160ff1b821460001984141615612e7857612e78612d9e565b500590565b6020808252601f908201527f5265656e7472616e637947756172643a207265656e7472616e742063616c6c00604082015260600190565b6020808252600e908201526d24b73b30b634b21039b2b73232b960911b604082015260600190565b602080825260129082015271496e73756666696369656e7420707269636560701b604082015260600190565b6000600019821415612f1c57612f1c612d9e565b5060010190565b60208082526031908201527f4552433732313a207472616e736665722063616c6c6572206973206e6f74206f6040820152701ddb995c881b9bdc88185c1c1c9bdd9959607a1b606082015260800190565b6020808252818101527f4f776e61626c653a2063616c6c6572206973206e6f7420746865206f776e6572604082015260600190565b60008219821115612fbc57612fbc612d9e565b500190565b634e487b7160e01b600052603260045260246000fd5b600081612fe657612fe6612d9e565b506000190190565b6000835161300081846020880161280a565b83519083019061301481836020880161280a565b01949350505050565b60008261302c5761302c612e39565b500690565b60008282101561304357613043612d9e565b500390565b600081600019048311821515161561306257613062612d9e565b500290565b60208082526032908201527f4552433732313a207472616e7366657220746f206e6f6e20455243373231526560408201527131b2b4bb32b91034b6b83632b6b2b73a32b960711b606082015260800190565b6000826130c8576130c8612e39565b500490565b6001600160a01b038581168252841660208201526040810183905260806060820181905260009061310090830184612836565b9695505050505050565b60006020828403121561311c57600080fd5b81516117b4816127d756feddf252ad1be2c89b69c2b068fc378daa952ba7f163c4a11628f55a4df523b3efa2646970667358221220aec99ba97b1c4462f9aa80e31183a86e53efd30bfab08ac62ae1bd51a0c7690e64736f6c634300080c0033687474703a2f2f7061727479626561766572732e696f3a383038302f746f6b656e2f",
  "immutableReferences": {},
  "source": "// SPDX-License-Identifier: MIT\npragma solidity >=0.4.22 <0.9.0;\npragma experimental ABIEncoderV2;\n\nimport \"@openzeppelin/contracts/token/ERC721/ERC721.sol\";\nimport \"@openzeppelin/contracts/access/Ownable.sol\";\nimport \"@openzeppelin/contracts/security/ReentrancyGuard.sol\";\nimport \"@openzeppelin/contracts/utils/Counters.sol\";\nimport \"@chainlink/contracts/src/v0.8/interfaces/AggregatorV3Interface.sol\";\nimport './DateTimeLibrary.sol';\n\ncontract LXRNFT is ERC721, Ownable, ReentrancyGuard {\n    using Counters for Counters.Counter;\n    Counters.Counter private _tokenIds;  \n    string baseURI;    \n    uint mintPhases; \n    int usdPerNft; \n    address lxrgame;    \n    mapping(address => bool) private whitelist;         \n    mapping(address => uint) private _tokenCount;\n    mapping (uint256 => TokenMeta) private _tokenMeta;\n    AggregatorV3Interface internal priceFeedUsd;    \n\n    struct TokenMeta {\n        uint256 id;\n        uint256 price;\n        uint power;\n        bool sale;        \n        uint locktime;\n    }\n\n    /**\n     * Chainlink for Oracle in BSC\n     * Network: Binance Smart Chain\n     * Aggregator 1: BNB/USD\n     * Address: 0x0567F2323251f0Aab15c8dFb1967E4e8A7D42aeE (Mainnet)\n     * Address: 0x2514895c72f50D8bd4B4F9b1110F0D6bD2c97526 (Testnet)\n     * Aggregator 2: BNB/LXR\n     * Address: 0x0 (Mainnet)\n     * Address: 0x0 (Testnet)\n     * Reference: https://docs.chain.link/docs/binance-smart-chain-addresses/\n    */    \n    constructor() ERC721(\"Loxarian NFT\", \"LXRT\") {\n        baseURI = \"http://partybeavers.io:8080/token/\";        \n        usdPerNft = 200; // 200 usd\n        mintPhases = 0; // 0: whitelist Sale, 1: public Sale, 2: normal Minting \n        priceFeedUsd = AggregatorV3Interface(0x2514895c72f50D8bd4B4F9b1110F0D6bD2c97526);\n    }\n    \n    function _beforeTokenTransfer(address from, address to, uint256 tokenId) internal override {\n        require(_tokenMeta[tokenId].locktime == 0 || _tokenMeta[tokenId].locktime < block.timestamp, \"Token locked\");\n        super._beforeTokenTransfer(from, to, tokenId);\n    }\n\n    /**\n     * @dev Base URI for computing {tokenURI}. Empty by default, can be overriden\n     * in child contracts.\n     */\n    function _baseURI() internal view override virtual returns (string memory) {\n        return baseURI;\n    }\n\n    function setBaseURI(string memory _newBaseURI) public virtual onlyOwner {\n        baseURI = _newBaseURI;\n    }\n\n    function setLoxarGame(address _lxrgame) public onlyOwner {\n        lxrgame = _lxrgame;\n    }\n\n    /**\n     * @dev Minting Phases for starting Sales.     \n     */\n    function setMintPhases(uint _newmintPhases) public onlyOwner {\n        mintPhases = _newmintPhases;\n        if (mintPhases > 1) {\n            usdPerNft = 10;\n        }\n    }\n\n    function isWhitelist(address sender) public view returns (bool) {\n        return whitelist[sender];        \n    }\n\n    function addWhitelist(address[] memory _whitelist) public onlyOwner {\n        for (uint i = 0; i < _whitelist.length; i++) {\n            whitelist[_whitelist[i]] = true;\n        }\n    }    \n\n    function getAllOnSale () public view virtual returns( TokenMeta[] memory ) {\n        uint256 counter = 0;\n        for(uint i = 1; i < _tokenIds.current() + 1; i++) {\n            if(_tokenMeta[i].sale == true) {\n                counter++;\n            }\n        }\n        TokenMeta[] memory tokensOnSale = new TokenMeta[](counter);\n        counter = 0;\n        for(uint i = 1; i < _tokenIds.current() + 1; i++) {\n            if(_tokenMeta[i].sale == true) {\n                tokensOnSale[counter] = _tokenMeta[i];\n                counter++;\n            }\n        }\n        return tokensOnSale;\n    }\n\n    /**\n     * @dev sets maps token to its price\n     * @param _tokenId uint256 token ID (token number)\n     * @param _sale bool token on sale\n     * @param _price unit256 token price\n     * \n     * Requirements: \n     * `tokenId` must exist\n     * `price` must be more than 0\n     * `owner` must the msg.owner\n     */\n    function setTokenSale(uint256 _tokenId, bool _sale, uint256 _price) public {\n        require(_exists(_tokenId), \"No exist token\");\n        require(_price > 0, \"Invalid price\");\n        require(ownerOf(_tokenId) == _msgSender());\n        _tokenMeta[_tokenId].sale = _sale;\n        _tokenMeta[_tokenId].price = _price;\n    }\n\n    function setTokenLocked(uint256 _tokenId, bool _lock) public {\n        require(_exists(_tokenId), \"No exist token\");        \n        require(ownerOf(_tokenId) == _msgSender() || lxrgame == _msgSender(), \"Not allowed\");\n        uint locktime = DateTimeLibrary.addDays(block.timestamp, 1);  \n        if (_lock)\n            _tokenMeta[_tokenId].locktime = locktime;\n        else \n            _tokenMeta[_tokenId].locktime = 0;        \n    }\n\n    /**\n     * @dev sets maps token to its price\n     * @param _tokenId uint256 token ID (token number)\n     * @param _price uint256 token price\n     * \n     * Requirements: \n     * `tokenId` must exist\n     * `owner` must the msg.owner\n     */\n    function setTokenPrice(uint256 _tokenId, uint256 _price) public {\n        require(_exists(_tokenId), \"No exist token\");\n        require(ownerOf(_tokenId) == _msgSender());\n        _tokenMeta[_tokenId].price = _price;\n    }\n\n    function tokenPrice(uint256 tokenId) public view virtual returns (uint256) {\n        require(_exists(tokenId), \"No exist token\");\n        return _tokenMeta[tokenId].price;\n    }\n\n    function tokenMintedCount() public view virtual returns (uint256) {\n        return _tokenIds.current();\n    }\n\n    function myNFTs() public view virtual returns (uint256[] memory) {\n        require(msg.sender != address(0), \"Invalid address\");\n\n        uint256 counter = 0;\n        for(uint i = 1; i < _tokenIds.current() + 1; i++) {\n            if(msg.sender == ownerOf(i)) {\n                counter++;\n            }\n        }\n        uint256[] memory mytokens = new uint256[](counter);\n        counter = 0;\n        for(uint i = 1; i < _tokenIds.current() + 1; i++) {\n            if(msg.sender == ownerOf(i)) {\n                mytokens[counter] = i;\n                counter++;\n            }\n        }\n        return mytokens;\n    }\n\n    /**\n     * @dev sets token meta\n     * @param _tokenId uint256 token ID (token number)\n     * @param _meta TokenMeta \n     * \n     * Requirements: \n     * `tokenId` must exist\n     * `owner` must the msg.owner\n     */\n    function _setTokenMeta(uint256 _tokenId, TokenMeta memory _meta) private {\n        require(_exists(_tokenId), \"No exist token\");        \n        _tokenMeta[_tokenId] = _meta;\n    }\n\n    function tokenMeta(uint256 _tokenId) public view returns (TokenMeta memory) {\n        require(_exists(_tokenId), \"No exist token\");        \n        return _tokenMeta[_tokenId];\n    }\n\n    /**\n     * @dev purchase _tokenId\n     * @param _tokenId uint256 token ID (token number)\n     */\n    function purchaseToken(uint256 _tokenId) external payable nonReentrant {\n        require(msg.sender != address(0) && msg.sender != ownerOf(_tokenId), \"Invalid sender\");\n        require(msg.value >= _tokenMeta[_tokenId].price, \"Insufficient price\");\n        require(_tokenMeta[_tokenId].sale == true, \"Not allowed for sale\");\n        require(mintPhases == 2, \"Not allowed now\");\n        \n        address tokenSeller = ownerOf(_tokenId);\n\n        // payable(tokenSeller).transfer(msg.value);\n        (bool bSent, ) = payable(tokenSeller).call{value:msg.value}(\"\");\n        if (!bSent) {\n            revert(\"Failed to send ether\");\n        }\n        setApprovalForAll(tokenSeller, true);\n        _transfer(tokenSeller, msg.sender, _tokenId);\n        _tokenMeta[_tokenId].sale = false;\n        \n        _tokenCount[tokenSeller]--;\n        _tokenCount[msg.sender]++;\n    }\n\n    function mintToken() external payable nonReentrant returns (uint256) {        \n        require(msg.sender != address(0), \"Invalid sender\");                \n        uint _price = uint(_getPrice(usdPerNft));\n\n        if (mintPhases == 0) {\n            require(_tokenIds.current() <= 5000, \"Phase 1: overflowed 5000\");\n            require(isWhitelist(msg.sender) == true, \"not whitelist address\");    \n            require(_tokenCount[msg.sender] < 5, \"A whitelist can have maximum 5 NFTs\");                \n        }\n        else if (mintPhases == 1) {\n            require(_tokenIds.current() <= 10000, \"Phase 2: overflowed 10000\");\n            require(_tokenCount[msg.sender] < 10, \"A wallet can have maximum 10 NFTs\");                \n        }\n        \n        require(msg.value >= _price, \"Insufficient price\");\n\n        payable(owner()).transfer(msg.value);        \n        setApprovalForAll(owner(), true);\n        \n        _tokenIds.increment();\n        uint256 newItemId = _tokenIds.current();\n        _mint(msg.sender, newItemId);\n        _tokenCount[msg.sender]++;\n        \n        _setTokenMeta(newItemId, TokenMeta(newItemId, _price, _generateRandomPower(0), false, 0));        \n\n        return newItemId;\n    }\n    \n    function mintAdmin(address _to, uint256 _count) external onlyOwner\n    {\n        require(_to != address(0), \"Invalid receiver\");\n        uint _price = uint(_getPrice(usdPerNft));\n\n        for (uint256 i; i < _count; i++) {\n            _tokenIds.increment();\n            uint256 newItemId = _tokenIds.current();\n            _mint(payable(_to), newItemId);\n            _tokenCount[_to]++;\n            \n            _setTokenMeta(newItemId, TokenMeta(newItemId, _price, _generateRandomPower(i), false, 0));\n        }\n    }\n\n    // Function to generate the hash value\n    function _generateRandomPower(uint i) internal view returns (uint) \n    {        \n        uint random = uint(keccak256(abi.encodePacked(block.timestamp, i)));\n        uint group = uint(random % 100) + 1;\n        uint power = 100;\n        uint[] memory provs = new uint[](5);\n\n        if (mintPhases == 0) {\n            provs[0] = 0; provs[1] = 0; provs[2] = 60; provs[3] = 30; provs[4] = 10;\n        }\n        else if (mintPhases == 1) {\n            provs[0] = 0; provs[1] = 75; provs[2] = 17; provs[3] = 6; provs[4] = 2;\n        }\n        else {\n            provs[0] = 75; provs[1] = 17; provs[2] = 6; provs[3] = 2; provs[4] = 0;\n        }\n\n        if (group <= provs[0]) {                    // basic\n            power = random % (250 - 100) + 100;\n        }\n        else if (group <= (provs[0] + provs[1])) {  // advanced\n            power = random % (500 - 250) + 250;\n        }\n        else if (group <= (provs[0] + provs[1] + provs[2])) {   // epic\n            power = random % (1000 - 500) + 500;\n        }\n        else if (group <= (provs[0] + provs[1] + provs[2] + provs[3])) {   // legendary\n            power = random % (2000 - 1000) + 1000;\n        }\n        else {  // supereme\n            power = random % (3000 - 2000) + 2000;\n        }\n\n        return power;        \n    }\n\n    // _usdPrice: USD Price * 100000000\n    // _return: BNB Price (wei)\n    function _getPrice(int _usdPrice) public view returns (int) \n    {\n        if (mintPhases == 0) {\n            return 400000000000000000;  // 0.4 BNB\n        }\n        else if (mintPhases == 1) {\n            return 150000000000000000;  // 0.15 BNB\n        }\n        \n        (\n            uint80 roundID,\n            int price,\n            uint startedAt,\n            uint timeStamp,\n            uint80 answeredInRound\n        ) = priceFeedUsd.latestRoundData();\n        return _usdPrice * (10 ** 26) / price;                \n    }\n}",
  "sourcePath": "E:\\Learn\\simple_nft_game\\contracts\\LXRNFT.sol",
  "compiler": {
    "name": "solc",
    "version": "0.8.12+commit.f00d7308.Emscripten.clang"
  },
  "schemaVersion": "3.4.3",
  "updatedAt": "2022-03-12T10:31:16.892Z",
  "networkType": "ethereum",
  "devdoc": {
    "kind": "dev",
    "methods": {
      "approve(address,uint256)": {
        "details": "See {IERC721-approve}."
      },
      "balanceOf(address)": {
        "details": "See {IERC721-balanceOf}."
      },
      "getApproved(uint256)": {
        "details": "See {IERC721-getApproved}."
      },
      "isApprovedForAll(address,address)": {
        "details": "See {IERC721-isApprovedForAll}."
      },
      "name()": {
        "details": "See {IERC721Metadata-name}."
      },
      "owner()": {
        "details": "Returns the address of the current owner."
      },
      "ownerOf(uint256)": {
        "details": "See {IERC721-ownerOf}."
      },
      "purchaseToken(uint256)": {
        "details": "purchase _tokenId",
        "params": {
          "_tokenId": "uint256 token ID (token number)"
        }
      },
      "renounceOwnership()": {
        "details": "Leaves the contract without owner. It will not be possible to call `onlyOwner` functions anymore. Can only be called by the current owner. NOTE: Renouncing ownership will leave the contract without an owner, thereby removing any functionality that is only available to the owner."
      },
      "safeTransferFrom(address,address,uint256)": {
        "details": "See {IERC721-safeTransferFrom}."
      },
      "safeTransferFrom(address,address,uint256,bytes)": {
        "details": "See {IERC721-safeTransferFrom}."
      },
      "setApprovalForAll(address,bool)": {
        "details": "See {IERC721-setApprovalForAll}."
      },
      "setMintPhases(uint256)": {
        "details": "Minting Phases for starting Sales.     "
      },
      "setTokenPrice(uint256,uint256)": {
        "details": "sets maps token to its price",
        "params": {
          "_price": "uint256 token price  Requirements:  `tokenId` must exist `owner` must the msg.owner",
          "_tokenId": "uint256 token ID (token number)"
        }
      },
      "setTokenSale(uint256,bool,uint256)": {
        "details": "sets maps token to its price",
        "params": {
          "_price": "unit256 token price  Requirements:  `tokenId` must exist `price` must be more than 0 `owner` must the msg.owner",
          "_sale": "bool token on sale",
          "_tokenId": "uint256 token ID (token number)"
        }
      },
      "supportsInterface(bytes4)": {
        "details": "See {IERC165-supportsInterface}."
      },
      "symbol()": {
        "details": "See {IERC721Metadata-symbol}."
      },
      "tokenURI(uint256)": {
        "details": "See {IERC721Metadata-tokenURI}."
      },
      "transferFrom(address,address,uint256)": {
        "details": "See {IERC721-transferFrom}."
      },
      "transferOwnership(address)": {
        "details": "Transfers ownership of the contract to a new account (`newOwner`). Can only be called by the current owner."
      }
    },
    "version": 1
  },
  "userdoc": {
    "kind": "user",
    "methods": {
      "constructor": {
        "notice": "Chainlink for Oracle in BSC Network: Binance Smart Chain Aggregator 1: BNB/USD Address: 0x0567F2323251f0Aab15c8dFb1967E4e8A7D42aeE (Mainnet) Address: 0x2514895c72f50D8bd4B4F9b1110F0D6bD2c97526 (Testnet) Aggregator 2: BNB/LXR Address: 0x0 (Mainnet) Address: 0x0 (Testnet) Reference: https://docs.chain.link/docs/binance-smart-chain-addresses/"
      }
    },
    "version": 1
  }
}